:020000040000fa
:08000000582d0400000000006f
:020000040000fa
:100400000410040000000000c61c040000000000ee
:10041000e21f040000000000b81f040000000000fc
:10042000ea2204000000000058230400000000003d
:1004300048240400000000003026040000000000f2
:100440000227040000000000a627040000000000ae
:10045000ec27040000000000422b04000000000014
:100460003402040000000000881f780002047800b5
:1004700014000700080040004f0478000000060048
:100480000000fa00881f7800000478003fb9970048
:10049000ea81570080007800402320002a000700ee
:1004a000800078000000e000020035000040eb0012
:1004b00000f47800010078004f0478000080fa0012
:1004c000000006008001eb000200370061f07900b7
:1004d0008301e800828f5100fcff3a000000060013
:1004e00000037800800178000002eb000100370073
:1004f0008059780084025100820f520009003200b6
:1005000064c078000402e8000004e000f8ff3a004c
:10051000830078008058eb0005804100808f5000f8
:10052000fcff3a0006007800000006008001eb00a6
:1005300002003700817178008301e800828f51004a
:10054000fcff3a00000006006200fa00889fbe002f
:100550008a9fbe000004be00020578008300780078
:1005600060f92f000f004000b000070088979f003f
:1005700099979f000000eb00a09f9f009a4578008c
:100580000b80fb000000ea00cf04de0050c2b30085
:1005900080cf5500020032000904780001003700c6
:1005a0000904e9000800e0000b0034001f909700e8
:1005b000080178008a0078008f91970003000100fd
:1005c00090979f000000e000930032002f98970062
:1005d00000004400a09f9f000905450050c2b300e1
:1005e00080cf5500040032000b04e000e3ff3a0026
:1005f0002f989700890037000000eb00809f9f0034
:10060000f0979f00e0979f00d0979f00c0979f00b2
:10061000b0979f00c09f9f000900370040d821007d
:10062000008050000000400081d72100e1007800e8
:100630004f98970001007000c09f9f000a05e800d6
:100640001a4478008800fb0040d821007c00070095
:10065000800078000000e000f0ff3a00a0c2b30084
:10066000804f54000e003a00bf8897000180e900d7
:10067000b08f9f0010007800b09f9f000000e00046
:1006800005003d000000ea00b09f9f004f989700d2
:100690000020a000c09f9f000a05e800100037005e
:1006a000b19f9f0009003700bf989700f0ff270017
:1006b000808f5000040032006a08b9000000410039
:1006c00003004000b09f9f000a05e8001a01fb00ec
:1006d00003fd2f0003004100e90f5000f2ff360038
:1006e000e0c2b3009a4f1000040032000080eb001b
:1006f000909f9f008a0478001c0037008a04e8005d
:10070000a0c2b300994f100007003a00bf889700bd
:100710000180e900b08f9f0010007800909f9f003b
:100720008a84e800110037000000eb00909f9f00d2
:10073000090037009f989700f0ff2700808f500036
:10074000040032006a08b9000000410003004000c4
:10075000909f9f008904e8001901fb0003fd2f0012
:1007600003004100e90f5000f2ff36001944780001
:100770008800fb00a0d82100310007000000e00045
:1007800002003a0000447800010037008904e800c4
:10079000a87f9f0080c6b300804f540004003a0039
:1007a000994f14000a003a006640500006003700d6
:1007b000c0c6b300804f540005003a00994f1400a2
:1007c00003003a0065404000a07f9f008904e800d4
:1007d0000905e800cbfb2f008f8545001901fb00c0
:1007e00060f92f000f0040000084e8008b017800c2
:1007f00080007800080078001a0007000000e00080
:1008000005003a008b0078000800780058010700c6
:100810000000e00059ff3d000080eb004f05be00e6
:100820004f04be000080fa00000006000200fa003b
:10083000f1bf9f00010878000080fa000000060068
:10084000040037000204e00001003a000000050047
:100850000000e80010417800814f5100f9ff3a0094
:1008600000000600889fbe008a1f78000004780000
:10087000010278008244780003057800e0c6b300e6
:10088000804f5100d200320015003c006b405000f8
:10089000804f5100240032000a003c00704050009c
:1008a000804f51000f01320065404000804f5100e1
:1008b0007400320050c2b300804f510020013a0052
:1008c0001c01370040c6b300804f51001b003200ae
:1008d00065404000804f510019013a001700370071
:1008e00030c7b300804f5100fe00320007003c00cb
:1008f00064405000804f5100620032000040e80028
:10090000804f51000e013a00e700370050c7b30096
:10091000804f51005b00320063404000804f510027
:1009200007013a00570037009180e900010a78007a
:10093000780090009171780007013700a86090005e
:10094000c0c6b30080cf50000a003a00940078007f
:1009500064805000000a78001000be004f89de005d
:10096000cf91de000002be0002037800820378000f
:100970001300370010c7b30080cf500003003200cf
:10098000a0c6b30080cf500006003a009400780063
:1009900068805000000a78003002be002003be00cc
:1009a000070037001480e900000a78001000780082
:1009b00000027800cfa2de000503780086037800ed
:1009c000049cbe000694be00a860900080c6b300e0
:1009d00080cf50000e00320020c6b30080cf500000
:1009e00005003a000400fb00cf80de000101780022
:1009f000820178000a00370040c7b30080cf500062
:100a0000030032006640400080cf500006003a00ec
:100a100004007800cf80de000101780082017800b8
:100a2000009cbe000294be003800be002801be003b
:100a3000e00f5000e08f5800e00f5900e08f5900a0
:100a400003003d0078009000d1c2b3000a003700d7
:100a5000081090000018a3000300320078009000f6
:100a6000b1c2b300040037000008a30053003200f5
:100a70007800900001c2b300017578000000e80022
:100a80004d003700a8609000c0c6b30080cf500072
:100a900006003a009400780064805000000a780054
:100aa0001002be006033b8001300370010c7b30057
:100ab00080cf500003003200a0c6b30080cf5000aa
:100ac00006003a009400780068805000000a780020
:100ad0003002be002003be00070037001480e9008a
:100ae000000a78001000780000027800050020005d
:100af0000600200007002000049cbe000694be00f3
:100b0000a860900080c6b30080cf50000e00320075
:100b100020c6b30080cf500005003a000480fb00df
:100b20000100200002002000030020000a0037001e
:100b300040c7b30080cf5000030032006640400041
:100b400080cf500006003a00040078000100200029
:100b50000200200003002000009cbe000294be00a2
:100b6000081090000038a300140032003800be00c6
:100b70002801be00e00f5000e08f5800e00f590040
:100b8000e08f59000d00320080c7b30080cf5400c1
:100b90000300320080c5b30080cf540007003a0044
:100ba0007800900001c3b300017578008000e80070
:100bb00009f578000080e800700498007800900043
:100bc000000045006004980089407800420037002a
:100bd000a8609000c0c6b30080cf5000250032004e
:100be0000a003c006440500080cf500028003200d2
:100bf00000c0e80080cf5000140032006840500070
:100c000080cf500022003a000a00370040c7b300ee
:100c100080cf50001e0032006640400080cf500060
:100c20001b0032006940500080cf500018003a008d
:100c3000060037001480e900000a780010007800f0
:100c4000485c900008487800450037001480e900af
:100c5000000a78001002780068089000cf80de005b
:100c60000101780082017800009abe000292be0065
:100c70003b0037001480e900000a7800100178007a
:100c800068089000cf80de000089be003400370085
:100c90001480e900000a780010007800680c9000c9
:100ca000080878002e0037001180e90080087800dd
:100cb00010007800cf80de0001017800820178000a
:100cc000009cbe000294be00780090000000450029
:100cd0006004980081c7b30008007800ee000700a8
:100ce0001f0037001480e900000a78001000780027
:100cf00060049800580990000200e00002003d00e6
:100d00009d010700090037008000eb00a1010700ea
:100d1000800078000000e0000300320068009000ce
:100d2000008050000100370058089000100c980017
:100d30000b0037007800900002757800060037003d
:100d400078009000800045000904e00001003a00ae
:100d500059c2b300894878000000e8007004980088
:100d60000000eb004f0578004f04be0000000600b5
:100d70000400fa00889fbe008a9fbe008c1f780086
:100d8000000478000106780070089000f8009000d8
:100d90000100500088089000010050009808900061
:100da00001005000a808900001005000b808900011
:100db00001005000c8089000810550000002220088
:100dc00090bf9f0000032300a0bf9f000810900069
:100dd0000028a30018003a000b00e00016003400c1
:100de0008b04780009057800e28f54000200360079
:100df0002a002000020037000900e0000b00340048
:100e000058009000c80190000a017800ee80570059
:100e100003000100500498000000e000960032003a
:100e20006808900000004500600c98008a84540017
:100e30004240a900ebff3c00780190000200e00076
:100e40000b00340058009000c80190008c0078001e
:100e500003000100500498000000e000860032000a
:100e600068089000f800900001004000600c9800b5
:100e7000880c90000900e000150034000905780096
:100e8000e28f5400020036002a00200002003700e2
:100e90000900e0000b00340058009000c8019000e9
:100ea0000a017800ec80570003000100500498000c
:100eb0000000e0007000320068089000000045006b
:100ec000600c98008a8454004240a900ebff3c006b
:100ed000180990000200e0000b003400e8009000c8
:100ee00058009000c80190000300010050049800d1
:100ef0000000e00060003200680890009808900050
:100f000001004000600c9800a80c90000900e0006f
:100f10001500340009057800e28f54000200360005
:100f20002a002000020037000900e0000b00340016
:100f300058009000c80190000a017800ec8057002a
:100f400003000100500498000000e0004a00320055
:100f50006808900000004500600c98008a845400e6
:100f60004240a900ebff3c00380990000200e0007d
:100f70000d003400e80090001808900080804000c8
:100f800058009000c8019000030001005004980030
:100f90000000e0003800320068089000b8089000b7
:100fa00001004000600c9800c80c90000900e000af
:100fb0001500340009057800e28f54000200360065
:100fc0002a002000020037000900e0000b00340076
:100fd00058009000c80190000a017800ec8057008a
:100fe00003000100500498000000e00022003200dd
:100ff0006808900000004500600c98008a84540046
:101000004240a900ebff3c00081090000028a3001c
:101010001b0032000b00e000190034008b04780044
:1010200009057800e28f5400020036002a002000f3
:10103000020037000900e0000b0034005800900067
:10104000c80190000a017800ee80570003000100fb
:10105000500498000000e00007003200680890008b
:1010600000004500600c98008a8454004240a900aa
:1010700003003400eaff37000080eb000100370076
:101080000000eb004f0678004f05be004f04be0085
:101090000080fa0000000600ef02b000889fbe004a
:1010a0008a9fbe008c9fbe008e1f780000067800cd
:1010b00070d62100c0b79f0080c5b30080cf50001c
:1010c0000800320062d52100c2b79f00774040007f
:1010d00080cf500003003a0083002000b3b79f0088
:1010e0000a00370080c7b30080cf500005003200ef
:1010f000a4002000b4b79f0080c5b30080cf50008b
:1011000002003a0000012000b0b79f003c04be007e
:101110002c05be0040c6b30080cf50000300320053
:101120006540400080cf50000b003a00e00f5400b3
:10113000e08f5c00e00f5d00e08f5d0006003d0089
:101140006000b8006011b80008045000898458009d
:101150000a0559008b855900e00f5400e08f5c00b0
:10116000e00f5d00e08f5d0004003a005c08900035
:101170008d0120000000e0000c003200bfb097009d
:1011800001027800cfa2de00050378008603780014
:101190000800be000a01be00950207004fb297008a
:1011a00064407800d0df9f007d0120003fb09700b1
:1011b00000027800cfa2de000503780086037800e5
:1011c0000800be000a01be0082020700009ebe00a9
:1011d0000296be000d00e90061fc2f008f804000e8
:1011e000008740001e0037003fb1970002047800de
:1011f000cfc4de00090578008a0578000802be0029
:101200000a03be007fa897008fb097001fb1970018
:10121000afb197007a020700d0b79f00e1b79f00f7
:10122000f2b79f0083bf9f008d06e9000802be0051
:101230000a03be00f80207007faa970000005200d0
:10124000cfb09700615778005fb09700efb097007c
:101250007fb197008fb99700009ebe000296be0036
:101260003c00be002c01be00f0af9f0081b79f0084
:1012700092b79f00a3b79f00e00f5000e08f580087
:10128000e00f5900e08f5900020034000d00e0002b
:10129000d5ff3c00bfb09700e88f500010003a0027
:1012a0000c1090000038a3000d003200f78f56009c
:1012b00006003e0062fc2f000f0141008d0041003e
:1012c00000c3b300914f1000050032008d06e90005
:1012d00000c3b30063fc2f008f81410080f17e00ca
:1012e00078811600120e98006c00900063fc2f00ad
:1012f0008f8141008d80410072fc07001c09900025
:101300005c089000800f510006003d000200500074
:10131000000e98000c1090000040a10000169800ec
:101320000f0037000000e0000d003d000c109000a1
:1013300074006000f00f500009003a007c08900033
:10134000fc009000010050008c089000010050004b
:10135000020050004240a90001003400000e980035
:101360004f0778004f06be004f05be004f04be0079
:10137000ef02b10000000600800078000100370095
:101380000000e8001004e000fdff3a0001005000fa
:10139000000006008001eb00040037008301e80034
:1013a00090cf1000040032000000e800828f51004e
:1013b000faff3a000000eb0000000600839f68007f
:1013c0000100e00002003d0060001000e080180015
:1013d0000300e00002003d0060011100e0811900ff
:1013e0001f0107004f00e00002003b0060001000fa
:1013f000e080180000000600889fbe008a9fbe00a3
:10140000010578000100e0000400350008003c0000
:101410000000e000200032000500370060001000ee
:10142000e080180002003b0001f02c001a00370099
:101430000004be006011b8006b0920000982cf00d3
:10144000020039000882cf000441b0006942520016
:101450000e00320008003b008281710061016400cf
:101460008904d1000884d3008b05e8000442e80019
:10147000f9ff3a00050037000804440089844c0055
:101480008b05e9000442e900fbff3a000401070074
:101490000af0a70001f0a0004f05be004f04be00f7
:1014a0000000060003f0a200889fbe008a9fbe00d5
:1014b0008c1f780020010700270133006450e100f1
:1014c0004f0032006420e1005200320003826c00c1
:1014d00007003b000905d0000306d000820f54002e
:1014e0000c065d000200390002003200890178001c
:1014f000030678008582550004003d000003fd00ce
:101500008103fd008502ea008b854200840f720092
:1015100002003b0060001000e08018006011b8007d
:101520000005eb007a28e1000a0039000600780087
:10153000c75ddd00f707b200878075002d0037001a
:10154000828171000a017800610560008180d1000c
:101550000080d3008502e900f9ff3b00060440004b
:101560008784480002003b0060041400e0841c00f3
:101570000988a300070032008a817100828171000e
:10158000610164008904d1000884d3008b05e80060
:10159000170037000978a30013003a000b00e000a1
:1015a000130034008b05e9000804440089844c00d2
:1015b0000a4474000978a3000d003a000b00e00013
:1015c000070034008b05e9000804440089844c00be
:1015d00001003a000b0020000978a300f7ff320059
:1015e0000001eb0002003700828171000a017800df
:1015f000ab0007000cf0a70001f0a000df003700ef
:101600006420e10002003a00838f6c00df003300a9
:101610000801be000200be00d8003700889fbe004f
:101620008a9fbe008c1f7800c3000700ca003300e9
:1016300003866c006450e100240032006420e10065
:10164000270032006150e100220032006120e100f9
:10165000210032008b854200eb07b1000134b80055
:10166000003ab8000804420089844a00013ab800f0
:101670000030b8008880400009014a0004003300af
:101680000000400081804800020149008b05e9000c
:10169000c909dd0083017000010032001300200041
:1016a000c814de004814dd004709de001200b20055
:1016b000c808de00088470007900070001f0a1006e
:1016c0000cf0a70001f0a000ac0037006120e100a1
:1016d000ae0032000801be000200be00f7ff370076
:1016e0006150e100fcff3a00a8003700889fbe006f
:1016f0008a9fbe008c1f78008f0007009600330081
:1017000003866c006450e1002e0032006420e1008a
:10171000330032006150e1002f0032006120e1000f
:101720003100320085855500eb07b000090020002c
:1017300008042000050037000804440089844c0098
:101740000a0031000603430087834b000001530069
:1017500081815b00f8ff33000203be000800a00097
:101760000804440089844c00f6ff3900c639dd00c6
:101770008301730001003200130020008904d100ae
:101780000884d3000998a300050032000800a700d0
:101790000300a0008904d1000884d3008b05e80071
:1017a0008904d1000884d3000001eb000281d2003b
:1017b0003b00070001f0a1000cf0a70001f0a00021
:1017c0006e0037006420e100700032000801be00a6
:1017d0000200be00f7ff37006120e1006b0032001d
:1017e0006000b800f3ff37000000200001f8270078
:1017f000f0ff37000001be00670007000470a7007b
:1018000003f0a10003f8a30013003a006509b1003a
:1018100010003200090035006928e100020035009f
:101820000100280000000500000040008180480001
:101830008502e900fcff3a0000000600f88f420034
:10184000050035008100d1000080d3008502e8004a
:10185000fcff3a00000006008000eb0000000500dd
:101860006022b800060220000000d0008180d20073
:101870000482d2008582d2000000a0000202520041
:1018800083825a00030031000202420083824a0030
:101890000000a1000603e900f3ff3a000000060083
:1018a00081002000618055000b003d000b002000ee
:1018b00061fe2f000100e1001d00340082817100f3
:1018c000610164008904d1000884d3000000e800ad
:1018d000faff3a007100200061006400030070000c
:1018e000020060000900320061044400e0844c0002
:1018f0000988a500050032008b05e8006808e100b2
:1019000002003a008904d1000884d300f20f2000bd
:101910000258e10005003d00c75ddd00f907b20097
:101920008980750008007800000006000bf8270089
:101930008b007800000005000004be0016000700c0
:101940000003be000405be000200be001200070036
:10195000844f7500000006000200be006450e100e4
:10196000050036006420e100020036000968a3008b
:1019700001003a000800be000160a0004f06780098
:101980004f05be004f04be0000000600f0ff2f0010
:10199000f1ff2700f9ff3700c70ade00f107b200a8
:1019a000f50fb20008003200e1cf42000200320021
:1019b0000170a00024000500810f700001003200ba
:1019c0000408050044000500810f700002003a0081
:1019d000140005008502e9000000400081c04800b5
:1019e000fcff3b000170a00024000500881f780068
:1019f000000478005001be004000be00040040001a
:101a0000858048000601490087814900009cbe008e
:101a10000294be000400e1000588e1000690e100a8
:101a20000798e10002003100680044001008e80057
:101a30004f04780000000600f4874700889fbe002e
:101a40008a9fbe008c9fbe008e1f78000205be00dc
:101a50000004be00d4b79f00e5b79f00f6b79f0013
:101a600087bf9f000000eb00c0b79f00b0b79f008a
:101a7000a0b79f0090b79f0080b79f000d04200083
:101a8000bfb097004fb09700000140000000e00099
:101a90000f003d004f08de0000007100c0b79f003e
:101aa0009e00070001003d0012002000a100070079
:101ab00001003d0012002000a6000700b100070051
:101ac000b60007000f004000c8ff070022003700e3
:101ad0004f08de0000067100ccb79f008f000700a2
:101ae00001003d00120020009200070001003d00af
:101af0001200200097000700a20007000fb2970015
:101b00009fb297002fb39700bfb39700a9000700bb
:101b10000000520081805a0002015b0083815b005b
:101b200080b79f0091b79f00a2b79f00b3b79f00f7
:101b30000007eb009f0007000020e10001a8e10082
:101b400002b0e10003b8e100010031001e002000f6
:101b50000e005600c0b79f004fb297000400e0008f
:101b60000700350010002000010020006011b800bf
:101b700008047000898470000a0571008b8571006b
:101b80008d06e900beff3a000400e00003003d00be
:101b9000820007000f00400094ff07004fa8970045
:101ba0000000e00004003a000fb497009fb49700d3
:101bb0002fb59700bfb59700940007004f07780036
:101bc0004f06be004f05be004f04be004f01b100de
:101bd00000000600881f780018002000881f780089
:101be00095ff07008f87e9004f047800000006008a
:101bf000801feb0090ff07008f87e90000000600c0
:101c0000889fbe008a9fbe008c1f78006e00070070
:101c100007003d0073000700e00f5b00e08f5b00f2
:101c200007003d00320007000006eb00040037000b
:101c30003400070002003d002a0007001c002000bd
:101c400072000700e3ff07000203be000002be00af
:101c50000c00e00001003200220007000400be007a
:101c60000601be004f0678004f05be004f04be00bf
:101c700000000600889fbe008a9fbe008c1f78006f
:101c80005100070005003d0056000700e00f5b0013
:101c9000e08f5b0006003d000400370019000700dc
:101ca00003003d006000b8006011b800100007009c
:101cb00056000700ceff07000203be000002be0070
:101cc0000c00e00001003200060007000400be0026
:101cd0000601be004f0678004f05be004f04be004f
:101ce000000006006000b8006011b8000000370076
:101cf000040250008582580006035900878359006a
:101d0000000006000006eb00e00f5200e08f5a00d2
:101d1000e00f5b00e08f5b000000060001804000e8
:101d200090b79f000001eb008fb097000100e0002a
:101d3000000006000200700090b79f000180400084
:101d400080b79f000001eb00ffa897000100e000b2
:101d5000000006000200700080b79f000180400074
:101d60006faa9700cf20de0001007000f0af9f0047
:101d700004024200250007004f18de000002720036
:101d800000000600e4af9f000804440089844c0072
:101d90000a054d008b854d00000006003fb29700fc
:101da000cfb297005fb39700efb3970000fe2f000c
:101db000000006003fb09700cfb097005fb19700da
:101dc000efb19700000006000205be000004be004f
:101dd000e00f5000e08f5800e00f5900e08f5900ed
:101de000000006006000b8006011b8000804500050
:101df000898458000a0559008b8559001c00200071
:101e0000e00f5200e08f5a00000006000800be00fc
:101e10000a01be0000000600889fbe008a9fbe0027
:101e20008c1f78000205be000004be000006eb0017
:101e3000e00f5000e08f5800e00f5900e08f59008c
:101e400007003d006000b8006011b80008045000b1
:101e5000898458000a0559008b8559001c00200010
:101e6000e00f5200e08f5a00e00f5b00e08f5b0054
:101e700002003d000f0007000c00a2000800be0099
:101e80000a01be00120007000203be000002be00ed
:101e90000c00e00001003200060007000400be0054
:101ea0000601be004f0678004f05be004f04be007d
:101eb000000006006000b8006011b8000402500085
:101ec00085825800060359008783590000000600e8
:101ed000889fbe008a9fbe008c9fbe000404b8008d
:101ee0000506b8008904460060854e000606b80065
:101ef0000a054600e0854e000706b8008b0546003f
:101f0000040eb800890446000a854e00e0854d00a5
:101f1000050eb8000a0546008b854e00060eb80077
:101f20008b0546000416b8000a0546008b854e0056
:101f30000516b8008b054600041eb8008b05460048
:101f40000800be000a01be004f06be004f05be00dd
:101f50004f04be00000006000000fa002500070044
:101f600020002000b01e0200000000000000eb0076
:101f7000ea2602000000000050002000a422020017
:101f8000000000006100200002b0240003002000d7
:101f9000200020006a270200000000001424020034
:101fa000000000006033b800860278003400200092
:101fb00086017800620e200021bc2a00400021002a
:101fc000ea16020000000000882a0200000000005b
:101fd00040e8880000e22400102a0200000000000f
:101fe000021a0200000000000000eb000080fa006e
:101ff000000006000000fa00b62302000000000006
:102000000080fa00000006000600fa00881f780031
:102010000004eb001807980040cf2100200798002b
:10202000ce1a020000000000000f780081bb2000e3
:102030000e007800a21702000000000054270200e2
:1020400000000000e10f50000600320080bc2a00b2
:1020500041cf210007000900b05878008000b1008e
:10206000180020005028020000000000e10f50007e
:102070000600320000bd2a0041cf21000700090000
:10208000b05878008000b10018002000b626020089
:1020900000000000e10f50000600320080bd2a0061
:1020a00041cf210007000900b05878008000b1003e
:1020b000180020001620020000000000e10f500070
:1020c0000700320000be2a0041cf210007000900ae
:1020d000b05878008000b100180020000d003700d3
:1020e0000800e0000b003a0090ea8000e2032000c4
:1020f0000280b90002e42300801f410080be2a0054
:10210000801f780040cf2100400202000000000044
:10211000e487570040e880008001eb000081eb007d
:102120008e80e8009811020000000000bfff370019
:102130000000fa00e0210200000000000080fa0028
:10214000000006000000fa00e400400011009800c2
:102150008088eb0031009800410098000008eb00f7
:102160000080fa00000006000000fa008000eb008a
:10217000410098000080fa00000006000000fa000c
:1021800090019000130190009200980010019000bf
:10219000a20098001301900021019800910198007d
:1021a00011009800c00098001008e8000080fa00b4
:1021b000000006000000fa0000027800910178009b
:1021c000e18f410002003a00400190000800370012
:1021d0006401400012009000908f5100040039000b
:1021e0001201900012009000908f5100fcff31000e
:1021f000120090009000980021009800a200980022
:1022000011019800c4009800140ae8000080fa0048
:10221000000006000000fa00800078001000900026
:102220002101900022009800a101900090019800e7
:102230004101900012009000810f500001003a000f
:10224000130198000000eb00c00098001209e9009b
:102250000080fa00000006000000fa00889fbe001f
:102260008a9fbe0080047800010578000000e0002d
:102270002900320060022000601e02000000000001
:10228000000478000000e000230032000ac8b90012
:10229000800578000000e800601e020000000000d9
:1022a00000017800000c78000000e000150032000a
:1022b0000b004000100498000000eb00600c980038
:1022c000220498000900e90000d0b9000000410094
:1022d00030049800790c98000a1498000080eb00f4
:1022e000101498002014980068004400a210020006
:1022f0000000000072004400a21002000000000074
:102300000600370008007800961e0200000000005a
:102310000004eb00010037000004eb000800780027
:102320004f05be004f04be000080fa00000006000a
:102330000600fa00889fbe008a9fbe008c1f7800ae
:102340008004780001067800220798008305780051
:102350000005eb001a1e020000000000e9089000d2
:1023600079089000808f5000130031000b01780035
:102370008c007800090078003201070019089000ed
:102380000000e0000800320072804400061c0200d9
:1023900000000000e10f500003003a00722b020021
:1023a0000000000000000000241e020000000000e9
:1023b00010002000410037002e0490000800e000cb
:1023c00004003a00241e020000000000080078000b
:1023d0003a0037000a00e00004003a000e007800de
:1023e000621c0200000000001a002000241e0200ef
:1023f00000000000341a0200000000001a1e020053
:102400000000000019109000e10f400002003a00a7
:102410000000eb009014980029109000e10f40009c
:1024200002003a000000eb00a0149800241e0200f5
:1024300000000000e40047000e007800701c02005d
:10244000000000000000e00017003a0009007800da
:102450008d0107000000e0000e003200ae00900089
:1024600068804400b81b02000000000009007800ea
:10247000300107003c1a0200000000000000e000ec
:10248000b4ff3a00722b02000000000000000000c0
:10249000b0ff370009007800260107003c1a02004f
:1024a00000000000abff37000900780021010700a1
:1024b0003c1a0200000000000000eb004f0678000c
:1024c0004f05be004f04be000080fa000000060069
:1024d0000000fa00889fbe00000478000102780026
:1024e0008204780003017800e008900070089000f2
:1024f0008001eb00808f50001700310084007800cd
:1025000008007800cf00070028109000e10f40007d
:102510000c003a00180890000000e0000d003200a6
:1025200072004400061c0200000000000000e000f1
:102530000800320010002000800c78008001780034
:10254000050037000000e800201498001300200068
:102550000100370013002000030078004f04be0084
:102560000080fa00000006000600fa00889fbe0006
:102570008a9fbe008c1f7800800478008105780057
:1025800022079800030678000005eb001a1e0200df
:1025900000000000690890000000e0002500320003
:1025a000390490008b00780009007800cd00070006
:1025b0000c00e0000f003a00690890000000e900fc
:1025c000e00c9800490090000000e0001500320087
:1025d00068804400061c020000000000e10f50006b
:1025e00010003a00722b0200000000000000000002
:1025f0000c003700b8049800190890000000e000b3
:102600000800320072804400061c02000000000036
:102610000000e00003003200722b02000000000006
:1026200000000000241e0200000000001000200036
:10263000410037002e0490000800e00004003a003a
:10264000241e020000000000080078003a00370055
:102650000a00e00004003a000e007800621c02004c
:10266000000000001a002000241e020000000000ec
:10267000341a0200000000001a1e020000000000d0
:1026800019109000e10f400002003a000000eb003a
:102690009014980029109000e10f400002003a00c9
:1026a0000000eb00a0149800241e020000000000af
:1026b000e40047000e007800701c020000000000db
:1026c0000000e00017003a0009007800d900070078
:1026d0000000e0000e003200ae0090007280440066
:1026e000b81b0200000000000900780091000700fc
:1026f0003c1a0200000000000000e000a3ff3a00c6
:10270000722b020000000000000000009fff370055
:1027100009007800870007003c1a02000000000052
:102720009aff370009007800820007003c1a020077
:10273000000000000000eb004f0678004f05be00cf
:102740004f04be000080fa00000006000000fa00fe
:10275000889fbe0000047800820478006008900022
:102760000000e00018003200080078005d0007005b
:10277000680890000000e900600c980018109000b4
:10278000e10f40000b003a00480090000000e0001c
:102790000c00320068004400061c0200000000002b
:1027a0000000e0000700320010002000800c7800dc
:1027b000050037000000e800101498001000200009
:1027c00001003700100020004f04be000080fa0016
:1027d000000006000000fa00881f7800000478005e
:1027e0001a1e020000000000680c9000241e020067
:1027f00000000000080078004f0478000080fa0014
:10280000000006000000fa00600890000080fa0056
:10281000000006000000fa00881f7800000478001d
:1028200010007800961e02000000000008007800ea
:10283000961e0200000000004f0478000080fa009d
:10284000000006000000fa00881f780000047800ed
:1028500002007800081190000200e0001b00320026
:102860000000e0000d003a00280090006202020023
:102870000000000028009000881090000100400037
:102880002004980098009000810f50000f0039003c
:1028900018007800200498000c00370038009000e1
:1028a00062020200000000003800900088109000d2
:1028b0000100500030049800980f500003003100d0
:1028c0001800900001005000300498006808900043
:1028d0000000e800600c98004f0478000080fa00c7
:1028e000000006000000fa000001be001000e00039
:1028f0000e00320030009000821090000100400075
:102900003001980092009000810f500002003900c1
:102910001200780030019800b2009000021190007f
:102920000300780062020200000000000080fa004c
:10293000000006000000fa00881f780000047800fc
:102940001a1e020000000000281090000000e000a5
:1029500030003c000f003700180890000000e00035
:102960000c00320072004400061c0200000000004f
:102970000000e00002003200bc1c02000000000069
:10298000281090000000e900201498004240a9009f
:10299000f1ff3c000080eb0020149800241e020090
:1029a000000000001a1e0200000000001810900035
:1029b0000000e0001b003c000f00370048009000c2
:1029c0000000e0000c00320068004400061c020019
:1029d000000000000000e00002003200bc1c020009
:1029e00000000000181090000000e900101498008a
:1029f0004240a900f1ff3c000080eb001014980059
:102a0000241e0200000000004f0478000080fa003d
:102a100000000600180890000000e000ddff320012
:102a2000d0ff3700480090000000e000f2ff3200c5
:102a3000e5ff37000000fa00881f780000047800e6
:102a40001a1e020000000000680c9000241e020004
:102a5000000000000800cf000000e9004f00de0089
:102a60004f0478000080fa00000006000000fa0021
:102a7000600890000000cf000000e9004f00de0079
:102a80000080fa00000006000000fa00889fbe00e7
:102a9000000478001a1e020000000000e808900000
:102aa0008004eb0078089000808f500001003a000d
:102ab00019002000241e0200000000000900780018
:102ac0004f04be000080fa00000006000000fa007b
:102ad000e00890000001eb0070089000808f50002b
:102ae00001003a0012002000020078000080fa0085
:102af000000006000000fa00889fbe008a1f7800d0
:102b000000047800010578008204780042a0a80043
:102b1000ddff07000000e0000c0032000900e000cb
:102b200007003200e800440009007800c0200200dd
:102b30000000000042a0a900c0ff2f001b003700ca
:102b400042a0a9000000eb001800370042a0a90035
:102b50000000000042a0a800e8089000780890005b
:102b60000001eb00808f50000e0031000001eb00ef
:102b70008a0078000800780032ff070018089000eb
:102b80000000e00006003200720044006c220200e7
:102b900000000000b2ff2f000000e00001003a003a
:102ba0001200200042a0a900020078004f05780022
:102bb0004f04be000080fa00000006000000fa008a
:102bc000881f7800000478008101780042a0a800e6
:102bd000600890000000e0000c003a000200e000f5
:102be00007003200f200440002007800c02002001a
:102bf0000000000042a0a900c0ff2f0028003700fd
:102c000042a0a9000000eb002500370042a0a90067
:102c10000000000042a0a800680890000000e0004a
:102c200002003a00800078001b0037003800900056
:102c30008810900001004000300498009800900037
:102c4000810f50000200390018007800300498000d
:102c5000680890000000e900600c9800b80090003f
:102c600008119000030078006202020000000000da
:102c7000480090000000e0000600320068004400b8
:102c80006c22020000000000b1ff2f000000e000f5
:102c900001003a001100200042a0a90001007800c4
:102ca0004f0478000080fa00000006000000fa00df
:102cb000889fbe00000478008101780082047800bb
:102cc000e008900070089000808f500010003100e4
:102cd0000001eb008300780008007800d9fe0700af
:102ce0000900e0000a003a00180890000000e00027
:102cf00009003200720044006c2202000000000053
:102d0000110020000000e00004003a00020037003b
:102d100089007800010037008000eb000100780096
:102d20004f04be000080fa00000006000000fa0018
:102d3000889fbe000004780081017800820478003a
:102d4000600890000000e0001f0032003800900092
:102d50008810900001004000300498009800900016
:102d6000810f5000020039001800780030049800ec
:102d7000680890000000e900600c9800b80090001e
:102d800008119000030078006202020000000000b9
:102d90001900e0000b003a00480090000000e0003d
:102da00008003200680044006c22020000000000ad
:102db0000000e0000300320010002000800c7800ca
:102dc00001003700100020004f04be000080fa0010
:102dd000000006000600fa00889fbe008a9fbe0021
:102de0008c9fbe00000f7800010678000205780075
:102df000130798008406780025079800860078005d
:102e00008705780002007800280307008004780016
:102e10000080eb000900e00045003200490c900002
:102e20000a004500000044000080e900f00c980012
:102e30000a0278008b0178000d0178008c00780080
:102e400009007800dc0207001e0190009e00780057
:102e500008007800961d020000000000800c780039
:102e60001a1e0200000000000c3dec0060e880002b
:102e7000e10f500003003a0059e88800eb02070018
:102e800007003700141de20005003a0050e88000fa
:102e900030089000808f56000100390059e8880002
:102ea000b908900080e88000808f50000100360053
:102eb00081e888001e3dec00b908900090e8800091
:102ec000808f50000100360091e888008980e8007a
:102ed000390990006a11b90020c5210002004000a4
:102ee000be10020000000000241e020000000000ce
:102ef0002e0090000000e000010032000908780078
:102f0000141de2000900320050e8800030089000f3
:102f10008d0f500005003100722b020000000000f0
:102f20000000000010002000010037001000200009
:102f30004f06be004f05be004f04be000080fa00e1
:102f4000000006000000fa00889fbe0080047800a0
:102f500001047800440107009900780008844000cb
:102f600070e88000808f500006003600888f500087
:102f70000900360070e88000800f540008003e0011
:102f800005003700888f500005003e0070e8800083
:102f9000800f540002003e000000eb0001003700eb
:102fa00010002000880c78000000e00013003200c0
:102fb0000a9dec000a1102000000000050e88000a9
:102fc0001800980070e88000800f5400060031005f
:102fd00051e8800080e480008180e800da1002007f
:102fe000000000000500370051e8800070e4800018
:102ff0008180e800da100200000000001e010700d6
:103000000000e00003003a00722b02000000000004
:10301000000000004f04be000080fa00000006001f
:103020000000fa00889fbe00800478000000e000e5
:10303000190032000c01070078e880000884440081
:103040000a9dec000a1102000000000050e8800018
:103050001800980070e88000800f540006003100ce
:1030600051e8800080e480008180e800da100200ee
:10307000000000000500370051e8800070e4800087
:103080008180e800da10020000000000fa0007006a
:103090000000e00003003a00722b02000000000074
:1030a000000000004f04be000080fa00000006008f
:1030b0000000fa00889fbe008a1f78000005780093
:1030c00081047800e38f50000100360039002000b1
:1030d0001a1e02000000000050e880008a0f500015
:1030e00002003a000005eb00020037000a00e00091
:1030f00002003a0058e88000010037000a04780016
:10310000b8089000818f5400270032000300360079
:103110000a00e00003003a00040037000a00e00063
:1031200002003a001a002000010037000005eb0001
:10313000390c980064801400600498006a09b90092
:1031400020c5210002004000d8009000808f500070
:1031500010003a008884e800090078000a11020093
:1031600000000000b808900090e88000808f5000b8
:103170000100360091e88800380990006a11b90012
:1031800020c521000200400089007800be10020026
:1031900000000000e10f550003003a00722b02000e
:1031a0000000000000000000241e020000000000db
:1031b0004f0578004f04be000080fa0000000600b2
:1031c0000000fa00889fbe008a1f78008004780003
:1031d0001a1e02000000000050e88000890f500015
:1031e00002003a008004eb00020037000900e00012
:1031f00002003a0058e88000010037000904780016
:103200000885e8000a0078000a11020000000000aa
:10321000280890000000e000030032006c00440029
:103220000a110200000000008a007800c0c92100d5
:10323000be10020000000000241e0200000000007a
:103240000900e00003003a00722b020000000000b9
:10325000000000004f0578004f04be000080fa0017
:10326000000006000000fa0000017800d000900085
:10327000c0c92100808f500007003a00a2089000ca
:1032800020c92100808f5000030032001000200070
:103290000100e000010032000000eb000080fa00b5
:1032a000000006000000fa00889fbe0000047800bd
:1032b0000000e0002300320050e88000800f54003e
:1032c000200032001a1e02000000000008007800f2
:1032d000e4ff0700e10f500018003a008884e8007e
:1032e000090078000a11020000000000b8089000f0
:1032f00090e88000808f50000100360091e888003f
:10330000380990006a11b90020c521000200400070
:1033100089007800be1002000000000050e8800024
:10332000b808900030089000808f500003003900ea
:10333000722b02000000000000000000241e0200aa
:10334000000000004f04be000080fa0000000600ec
:103350000000fa00889fbe008a1f780000047800f1
:10336000c0ff07000005eb00e10f500020003a000d
:10337000b1e880000100e00018003a0050e8800049
:1033800001057800b808900030089000808f500048
:10339000010039001a0020008884e8000900780044
:1033a0000a11020000000000b808900090e88000b8
:1033b000808f50000100360091e8880038099000a5
:1033c0006a11b90020c52100020040008900780080
:1033d000be1002000000000005003700ec004400b1
:1033e00020c92100be100200000000000005eb0013
:1033f0000a0078004f0578004f04be000080fa00f4
:10340000000006000000fa006033b8008602780071
:1034100006027800860178003207200001c92a00e0
:1034200060cc21006bfe0700e10f500005003a0060
:1034300042a0a800a0e888000e3def00c21d0200d7
:10344000000000000080fa00000006000000fa0002
:1034500042a0a800143def00f01d02000000000093
:103460000080fa00000006000000fa00163dec00a3
:103470000080fa00000006000000fa00889fbe00ed
:103480001a1e020000000000163ded00b0e88000aa
:103490000000e00036003a000c1de200340032006b
:1034a00080047800180037006c0044000a11020004
:1034b000000000000880e8000a110200000000007f
:1034c000b808900090e88000808f5000010036001e
:1034d00091e888008880e800380990006a11b900f6
:1034e00020c5210002004000be10020000000000c4
:1034f000b808900050e8800030089000808f50009d
:103500000100390019002000921ce2000500320081
:10351000c0e4800030009000000478000000e0006b
:10352000e1ff3a00181de20013003a0005003700e1
:1035300029000700183ded00181de20006003200ca
:10354000fbff3700e18f540003003200d0e8800019
:10355000e10f500006003a001a3def00722b020006
:1035600000000000000000001800200005003700e7
:103570000004eb0003003700181de200f6ff3200e4
:10358000ebff3700241e0200000000000800780056
:103590004f04be000080fa00000006000000fa00a0
:1035a000881f78001a1e02000000000078e88000e2
:1035b000241e020000000000080078004f0478007c
:1035c0000080fa00000006000000fa0060e88000b9
:1035d0000080fa00000006000000fa00881f780052
:1035e000161de2002e003a000e3dec000e1de2001a
:1035f00005003a0070e4800081e4800071e48800f6
:1036000080e488001c3dec0070e480001000e000c5
:1036100025003a002d0037009800900070e88000e7
:10362000808f500029003e000880e8000a11020047
:1036300000000000280890000000e00003003200b5
:103640006c0044000a11020000000000b80890005d
:1036500090e88000808f50000100360091e88800db
:103660008880e800380990006a11b90020c521005f
:1036700002004000be1002000000000070e4800064
:103680001000e0001100320070e480003000900073
:10369000300490000800e000dfff3a000b00370024
:1036a000183dec000900370070e480003000900005
:1036b000300490000800e000040032009800900000
:1036c00070e88000808f5000d7ff36004f047800ec
:1036d0000080fa00000006000000fa00161de2005b
:1036e0001a00320010002000d0e888001e003700c9
:1036f000123ded0090e880006a00b90022c521006b
:10370000620078000000e000f9ff320090e88000dd
:103710006a00b90022c5210080004100110090001c
:10372000100190009200980064804000800f5100ca
:1037300002003a00120190009200980011009000df
:103740003000900050e888000700370090e88000c3
:103750006a00b90022c52100620078000000e00084
:10376000e3ff3200e9ff37000080fa0000000600a6
:103770000000fa00881f78000104780051e88000fa
:10378000ec804000da100200000000000a9dec000e
:103790000a11020000000000e10f440006003a0098
:1037a00051e880008180e800c0c92100be100200fd
:1037b000000000001200370070e8800000004400a4
:1037c00051e880009000980071e88000810f50005f
:1037d0000600310051e8800080e480008180e8002c
:1037e000da100200000000000500370051e88000f8
:1037f00070e480008180e800da1002000000000020
:103800004f0478000080fa00000006000000fa0073
:10381000881f780080007800100078000000e00029
:1038200002003a00000478000200370031009000e6
:10383000300490006c0044000a11020000000000f7
:10384000161de20010003a000880e8000a1102008c
:1038500000000000b808900090e88000808f5000c1
:103860000100360091e888008880e800380990005f
:103870006a11b90020c5210002004000be100200fc
:103880000000000004003700ec00440020c92100c3
:10389000be100200000000003808900051e88000cf
:1038a000b10890000001eb00810f500001003900c9
:1038b00012002000020078004f0478000080fa0017
:1038c000000006000000fa00e1e88000010878002e
:1038d00071e88000110098000080fa0000000600e6
:1038e0000000fa00889fbe008a1f7800000478005c
:1038f000010578001a1e0200000000001a0178007d
:103900008004eb00e10f410014003200e0e8800089
:10391000980f10000400320071e880001800900039
:10392000810f50000c0036009800900001007800d4
:103930000e1db500800f5100070036000100780011
:103940000e1db500000d510008007800ddff0700d6
:103950008004eb000100370019002000241e020043
:1039600000000000090078004f0578004f04be00f9
:103970000080fa00000006000000fa00100020009d
:10398000d0e888000080fa00000006000000fa007d
:103990004300070090e28000e10f50000300360072
:1039a000722b0200000000000000000098100200ce
:1039b00000000000f6ff37000000fa00889fbe00fc
:1039c0008a1f780080047800020578007a004000a1
:1039d0004200200070020200000000000040eb00e6
:1039e000d05c9800e30f5500010036003a0020003b
:1039f000ba0c98000980e800b41002000000000032
:103a00006c84440008007800b4100200000000003c
:103a1000c9049800640c1500990c98004f057800b3
:103a20004f04be000080fa00000006000000fa000b
:103a3000889fbe0028c52100a9c721000800780082
:103a4000a2100200000000006a044400888f5400a5
:103a5000faff3a00a0c72100a210020000000000f7
:103a600040c82100a21002000000000020c921006f
:103a7000a210020000000000c0c92100a210020034
:103a800000000000a0c7210070e4880040c82100a9
:103a900080e488004f04be000080fa0000000600a9
:103aa0000000fa000080fa00000006000000fa00a2
:103ab000889fbe008a1f7800000478000002200062
:103ac000601e020000000000800478000000e0009a
:103ad00011003200080544000a007800601e020050
:103ae0000000000000047800c00c98000000e00016
:103af00005003a0009007800961e02000000000050
:103b000088047800040037000a017800510a200078
:103b10009602020000000000090078004f057800be
:103b20004f04be000080fa00000006000000fa000a
:103b3000010878008000eb00110098002100980037
:103b400032009800e800400080c22a0082c42a00a7
:103b5000b0187800800f5100fdff3a0044c0bf004c
:103b60000080fb0080087800a00180009000980091
:103b70000000eb00a0009800668040000080fa0082
:103b8000000006000000fa001800070050e880005e
:103b9000900778004f00780050ea88003400f90060
:103ba0004400f9003200f9003600f9004f077800b0
:103bb0004f06be004f05be004f04be004f03be00bf
:103bc0004f02be004f01be004f00be004200f90090
:103bd00000000600100020000080fa00000006002f
:103be0000000fa000080fa00000006000000fa0061
:103bf0000000eb002008880000088800007d2000fd
:103c000010088800a5c0bf00f1c8b30001406000e3
:103c10000044a000a5e0b7008460a9009460a8005b
:103c20000481a80004a1a90005e1a8000080fa0011
:103c3000000006000000fa0042a0a8004a3dec0087
:103c40000080fa00000006000000fa004a1ded00a6
:103c500050ea880001003a0042a0a9000080fa0062
:103c6000000006003600f800809fbe00829fbe0064
:103c7000849fbe00869fbe003400f80000c0b300e1
:103c8000a00188000000fa008460a900ec1a02007c
:103c900000000000722b0200000000000000000085
:103ca0000080fa003400f9004f03be004f02be004e
:103cb0004f01be004f00be003600f9000040060074
:103cc0000000fa00881f7800000478000008a300b4
:103cd000020032000000a1000084e800341a020053
:103ce000000000008242800082004400f03f21007a
:103cf000808f500006003e00810f5100040031000b
:103d00002085200000044100814288000100370026
:103d10000004eb003c1a02000000000008007800dc
:103d20004f0478000080fa00000006000000fa004e
:103d30000080fa00000006000000fa005028ef00a2
:103d40000080fa00000006000000fa000040210098
:103d500081428000010050000080fa00000006004f
:103d60000000fa00889fbe008a9fbe008c1f78006a
:103d70000006780060002000601e020000000000c5
:103d80008004780021002000100020002c11020087
:103d900000000000800c78008b3e20009b049800ff
:103da000c0cd2100a004980060002000601e020029
:103db0000000000000057800190878000004eb00fe
:103dc0001800980020ce2100200598008803780074
:103dd00008037800880278000c02780089017800d6
:103de0003207200081bf2a0020fe2100ea160200cf
:103df000000000008803780008037800880278003b
:103e0000080278008a0178003207200001c02a00e9
:103e100080fb2100ea160200000000006000200084
:103e2000601e0200000000008004780021002000d5
:103e3000100020002c11020000000000800c78000f
:103e40009804980040ce2100a00498006000200053
:103e5000601e0200000000000005780019087800cc
:103e60001b009800e0cd2100200598008803780011
:103e70000803780088027800080278008901780039
:103e80003207200081c02a0020fe2100ea1602002d
:103e9000000000008803780008037800880278009a
:103ea0000c0278008a0178003207200001c12a0044
:103eb00080fb2100ea1602000000000060002000e4
:103ec000601e020000000000800478002100200035
:103ed000500020002c11020000000000800c78002f
:103ee0009b04980060ce2100a00498006000200090
:103ef000601e02000000000000057800190878002c
:103f00001b00980000ce210020059800880378004f
:103f10000803780088027800080278008901780098
:103f20003207200081c12a0080fb2100ea1602002e
:103f300000000000880378000803780088027800f9
:103f4000080278008a0178003207200001c22a00a6
:103f500020fe2100ea160200000000004f06780053
:103f60004f05be004f04be000080fa0000000600ae
:103f70000200fa00889fbe008000eb00010f78006d
:103f80000004be0001003700190020001801900055
:103f9000180078008001eb008e0078009811020074
:103fa00000000000e10f5000f7ff3a000900e000b8
:103fb00002003a00280090001008e8001e0fe800f8
:103fc000f2ff37000200fa00889fbe008a1f7800c7
:103fd000000478008004eb00090578000200370037
:103fe000800478001a002000180190001800780062
:103ff0008001eb008e007800b41202000000000087
:10400000e10f5000f8ff3a001e007800808f540046
:10401000f3ff3a000a00e00002003a002800900096
:104020001008e8008904e800efff37000000fa00fc
:10403000170020008000eb00e4ce210083ce210099
:10404000c6cd210025ce21000180400060007b000c
:1040500004017800940f500001003a008003eb0047
:104060000180400060097b0060807a0003017800d5
:10407000930f500001003a008003eb0001804000e4
:1040800060897a008100e8000482e8008381e8000a
:10409000e38f5000ecff3a00070078000080fa0040
:1040a000000006000000fa00889fbe008a9fbe0044
:1040b0008c1f7800000678008105780002047800e3
:1040c000c0012000601e0200000000008004780093
:1040d0000080eb000900e00024003200301de20007
:1040e00002003a0089e98800e1000700e18f5500ed
:1040f000010036001b0020000000eb00d00c9800ef
:10410000bb0c9800c80c9800090578000c1d7800bd
:104110000a007800b4100200000000006c84440023
:1041200008007800b410020000000000c9049800e4
:10413000990c9800648c1500b908900090e98000f3
:10414000808f50000100360091e988003909900005
:104150006a11b90060ca2100020040008a0078009c
:10416000be10020000000000100020004f06780082
:104170004f05be004f04be000080fa00000006009c
:104180000000fa00889fbe000001780081047800da
:10419000a0e9800000044100309dec000a110200fb
:1041a0000000000080e9800018009800a0e980006d
:1041b000800f54000600310081e980008180e80012
:1041c00080e68000da1002000000000005003700e1
:1041d00081e980008180e80070e68000da1002004a
:1041e000000000000900e0000500320081e98000c5
:1041f000ec80400009007800da10020000000000a6
:104200004f04be000080fa00000006000000fa0023
:10421000881f7800d21ce2001d00320042a0a800d6
:1042200090e680000000e00002003a000004780000
:1042300002003700c0e68000300490006c004400ab
:104240000a1102000000000042a0a9000880e80056
:104250000a11020000000000b808900090e98000f8
:10426000808f50000100360091e988008880e800c6
:10427000380990006a11b90060ca210002004000ac
:10428000be10020000000000d21ce200e3ff3a0072
:104290004f0478000080fa00000006000000fa00d9
:1042a000881f7800ce1a020000000000b1e98000eb
:1042b00001005000c0e9880031003700a1e980000a
:1042c0008100e800a1e988000000e900c0e9880059
:1042d0000100e00004003a0070e6800082e6800001
:1042e00072e6880080e6880070e680001000e0003a
:1042f0002b003a002200370098009000a0e98000cf
:10430000808f50001e003e0042a0a8000880e800f8
:104310000a11020000000000280890000000e000e0
:10432000030032006c0044000a110200000000008b
:1043300042a0a900b808900090e98000808f50004a
:104340000100360091e988008880e8003809900073
:104350006a11b90060ca210002004000be100200cc
:104360000000000070e680001000e0000400320051
:1043700030009000300490000800e000deff3a00ba
:10438000c0e980000000e000ccff3a00a0e9800016
:10439000b0e988004f0478000080fa0000000600b1
:1043a00030009000300490000800e000f4ff32007c
:1043b00018009000808f5000f1ff3900d2ff3700c5
:1043c0000000fa0091ff0700b4ff070094e98000a5
:1043d0006a20b90062ca2100800041001100e0009b
:1043e00019003200090037000201e8006a0050009d
:1043f000840f51001c0032008301e90093e988001a
:10440000800078001000e000f7ff320011009000fb
:10441000100190009200980064804000800f5100cd
:1044200002003a00120190009200980011009000e2
:104430003000900080e9880010017800c0089000ea
:1044400002000100080037000400e000060032000e
:104450006a20b900c2c9210000004100840178002f
:104460000001eb00e4ff37000080fa0000000600c6
:104470000000fa00889fbe0068ca2100a9cb210075
:1044800008007800a2100200000000006a04440046
:10449000888f5400faff3a00a0cb2100a21002003e
:1044a0000000000040cc2100a2100200000000002b
:1044b00020cd2100a210020000000000a0cb2100ae
:1044c00070e6880040cc210080e688004f04be00e2
:1044d0000080fa00000006000000fa00889fbe007d
:1044e000900078000100e00002003a0081047800aa
:1044f0000200370030009000b00490006c8444004b
:10450000080078000a11020000000000880078000e
:1045100020cd2100be10020000000000b90890006c
:1045200080e98000300890000001eb00808f50008f
:104530000100390012002000020078004f04be0084
:104540000080fa00000006000000fa00889fbe000c
:1045500080047800e80f5000010036008900200038
:1045600021002000100020002c110200000000009b
:1045700070ea88000000e00010003a0012003700e6
:104580000004eb00080178008000eb00a02e220060
:1045900052200200000000000804e800888f540048
:1045a000f8ff3a000001eb001100200080352200e6
:1045b0005220020000000000030037000900e00064
:1045c000f8ff3200eeff37004f04be000080fa0013
:1045d000000006000200fa00881f7800010f780032
:1045e00000047800d008900020162000808f500032
:1045f0001400320003003e000100e000070032001a
:104600002800370030162000808f50001a0032003a
:1046100073004000808f500022003a0070ea800052
:104620000001eb008e0078007a1502000000000007
:10463000e40f400008003a0020162000500c9800bb
:104640001800370070ea80000001eb008e0078004f
:104650007a15020000000000e50f400003003a0058
:1046600030162000500c98000e003700e10f50006b
:10467000010032004c3def001e00780000004000b9
:10468000e1c52a00608078000000e00003003200ed
:104690008000eb00c0200200000000006017200036
:1046a000500c98004f0478000080fa0000000600cb
:1046b0000200fa00881f780000047800d0089000fb
:1046c000201a2000808f50000f0032000000e80008
:1046d000808f50001a0032000100e0001c003a00f8
:1046e00070ea80000081eb008e007800de15020089
:1046f00000000000e40f400008003a00201a2000eb
:10470000500c98001200370070ea80000001eb00a6
:104710008e007800de15020000000000e50f40006a
:1047200003003a00301a2000500c980008003700af
:10473000e10f5000020032004c3def00e8ff37006f
:104740001e007800ee23020000000000e4ff3700a6
:104750004f0478000080fa00000006000000fa0014
:1047600060ea80000080fa00000006000000fa0005
:104770000000eb0000168800101688000080fa0088
:10478000000006000000fa00881f780012002000d8
:104790000014dd000100e000070032001a1e0200d4
:1047a0000000000008007800c222b700241e0200aa
:1047b00000000000060037001a1e02000000000082
:1047c0000880ea00c222b600241e02000000000099
:1047d0004f0478000080fa00000006000000fa0094
:1047e000881f780011002000000cdd001a1e020056
:1047f00000000000111680000880600003003200f5
:104800000880ea00c222b6000200370008007800e3
:10481000c222b700241e0200000000004f047800ee
:104820000080fa00000006000000fa0021002000cd
:10483000500020002c1102000000000050e9880008
:104840006033b800860278003400200086017800ca
:1048500032072000e1c62a0080442200ea16020046
:10486000000000006033b800c5d221002400200001
:10487000860178003207200051c72a000063220019
:10488000ea160200000000000080fa0000000600a6
:104890000400fa00889fbe008a9fbe008c9fbe0065
:1048a0008005eb001c0020005d0520000b0f780048
:1048b0008b007800a00020000104dd00ce1a020069
:1048c000000000008004780050e980008001eb00c7
:1048d000080178008e80e800b41202000000000099
:1048e0000000e000010032002ce98800ce1a02002e
:1048f0000000000089005000810f540001003600c4
:104900002ce988006f004400808f500001003600c1
:104910002ce988009e00e800010f7800e48f500029
:10492000e4ff3400000feb001800200050e9800085
:104930008001eb00030178008e00780098110200de
:1049400000000000e10f50000100320028e988005b
:104950001e00e800000f7800e40f5000f3ff340061
:104960000b0f78008b0078001a002000a0002000b8
:104970000104dd00ce1a020000000000800478006f
:1049800050e980008001eb00080178008e0078007b
:1049900098110200000000000000e0000100320059
:1049a0002ae98800ce1a02000000000089005000a9
:1049b000810f5400010036002ae988006f0044008e
:1049c000808f5000010036002ae988009e00e80030
:1049d000010f7800e48f5000e4ff34002e3def001b
:1049e00060e98000521902000000000070e98000b8
:1049f0008d0f5000070032005805200040012000b4
:104a0000101802000000000070e98000880f5000bc
:104a1000faff3a00400120001018020000000000d8
:104a20007be988000b0f7800180020005905200052
:104a300050e980008001eb00030178008e80e800df
:104a4000b412020000000000e10f5000010032002b
:104a500028e9880050e980008001eb00030178001c
:104a60008e0078009811020000000000e10f500055
:104a70000100320028e9880070e98000890f5000a9
:104a800001003a0028e9880060e980005100200018
:104a9000581802000000000070e98000890f5000e3
:104aa00001003a0028e9880060e980002100200028
:104ab00058180200000000001e00e800000f7800f7
:104ac000e40f5000daff340070e980008d0f5000d1
:104ad0000700320058052000400120001018020095
:104ae0000000000070e98000880f5000faff3a00d3
:104af0004001200010180200000000007be988003f
:104b00000b0f78001800200050e980008001eb00b6
:104b1000030178008e80e800b4120200000000005b
:104b2000e10f50000100320028e988001e00e80073
:104b3000000f7800e40f5000f3ff340060e98000bc
:104b4000521902000000000070e980008d0f500033
:104b50000700320058052000400120001018020014
:104b60000000000070e98000880f5000faff3a0052
:104b70004001200010180200000000007be98800be
:104b80000b0f7800180020005905200050e9800024
:104b90008001eb00030178008e007800981102007c
:104ba00000000000e10f50000100320028e98800f9
:104bb00050e980008001eb00030178008e80e8005e
:104bc000b412020000000000e10f500001003200aa
:104bd00028e9880070e98000890f500001003a0040
:104be00028e9880060e98000510020005818020080
:104bf0000000000070e98000890f500001003a00b9
:104c000028e9880060e9800021002000581802008f
:104c1000000000001e00e800000f7800e40f5000c4
:104c2000daff340070e980008d0f50000700320079
:104c3000580520004001200010180200000000006c
:104c400070e98000880f5000faff3a004001200010
:104c50001018020000000000203dec0013ff370098
:104c60000200fa00889fbe008a9fbe008005eb000c
:104c7000590520001a0020000000eb00e018020097
:104c800000000000ce1a02000000000000047800be
:104c90000b0f780079e9880050e980008b017800db
:104ca000f20a20008e007800981102000000000037
:104cb0000000e000010032002ae98800ce1a02005c
:104cc0000000000088005000e00a2000808f5000a3
:104cd00002003e002ae9880004003700e00b2000b3
:104ce000808f5000010036002ae9880079e98800a9
:104cf0000000eb00e018020000000000ce1a0200e5
:104d0000000000000004780079e9880050e9800084
:104d10008001eb00f20a20008e007800b41202003d
:104d2000000000000000e000010032002ae98800d5
:104d3000ce1a02000000000088005000e00a2000a7
:104d4000808f500002003e002ae9880004003700ee
:104d5000e00b2000808f5000010036002ae9880017
:104d600079e98800223dec00c3ff37000000fa001b
:104d700001e980000041eb0040e98000808f500095
:104d800001003a0012c0b300024078000004a20003
:104d90000081fb0011e9800030e98000808f500025
:104da00001003a000001eb0020e98000e10f500013
:104db00001003a000001eb0010e9800030e98800b2
:104dc00000e9800040e98800020078000080fa00d5
:104dd000000006000000fa006033b8008602780088
:104de0000002780003d521003207200081c82a0084
:104df00020702200ea160200000000000080fa0085
:104e0000000006000400fa00889fbe008a1f780098
:104e1000000578008004eb00d8ff2f000100370068
:104e200019002000b007200001002000008fbe0004
:104e300070442900310020001e0f40005e9748009a
:104e40001e00be000801b800008251000888b900a9
:104e500080014200028fbe001e00be0072002000d2
:104e600003002000de09020000000000008fbe00e9
:104e7000b0712700e1ff2f00be0f1000ae8f1800a9
:104e8000e7ff3a000900e000e6ff3a001a1e0200c0
:104e90000000000010002000000d7800241e020019
:104ea00000000000dfff37000000fa0081ea800008
:104eb0000000eb0080ea88000100e00001003a00f9
:104ec00010c0b3000004a2000080fb000080fa00c4
:104ed000000006000000fa00881f78000004780037
:104ee0000202be00e1e98800820120000400be0049
:104ef00066280200000000006033b80086027800d7
:104f00000802e9008601780032072000c1c72a00a4
:104f1000607a2200ea160200000000006033b80048
:104f200086027800080278008601780032072000a7
:104f300021c82a00c07e2200ea16020000000000fc
:104f40004f0478000080fa00000006000000fa001c
:104f5000889fbe0099c5b30018c4b300d0e9800093
:104f60000001eb00884078003c29020000000000ae
:104f7000e10f500003003a00e0e98000ee23020058
:104f8000000000000844e800894f5400f3ff3a0095
:104f9000e0e980008000eb00c22302000000000076
:104fa000ce1a0200000000006300400062092000e9
:104fb000110009000280d80010032000808f5000eb
:104fc00001003e00210320000100780010180200bb
:104fd00000000000e0ff37000200fa00889fbe00da
:104fe0008a9fbe008c1f78000005eb000a0678003f
:104ff00099c5b3008bc5b30018c4b300d0e98000d5
:105000000081eb008e0078002829020000000000db
:105010000000e000050032009e4f14000d003a0031
:105020003c1dec00ee230200000000000844e800f4
:10503000894f5400f1ff3a003c1dec008000eb006a
:10504000c223020000000000e10f55000d003a00ed
:10505000100037001a002000f7ff3700d0e9800069
:105060000081eb008e00780028290200000000007b
:105070009ecf1500f9ff3a000c06e8000005eb0092
:10508000ddff3700e10f5600dbff3c003e3dec004a
:10509000d9ff37009ecf1500f0ff3a00f6ff37002a
:1050a0000000fa00f1e980000000eb00f0e9880060
:1050b0000100e00001003a0010c0b3000004a200ab
:1050c0000080fb000080fa00000006000000fa00eb
:1050d000881f78008a9fbe000005be000204780089
:1050e00011002000020078002c11020000000000d6
:1050f00000ea880011002000080078002c1102004e
:105100000000000010ea88003062a9003002a90007
:1051100090cfb3003062b6003082a90030a2a9005f
:1051200030c2a90030e2a900c0cfb3003162b6009e
:105130003182a90031a2a90031e2a800e00f550098
:10514000e08f5d00040035000a00be00fc0902008b
:10515000000000000b003700610065000100200026
:105160008b01d1000a81d30002007000838070009f
:10517000fc090200000000000001be00540a020009
:105180000000000002002000031824000e0b0200a3
:10519000000000000001be000040220041b72400d2
:1051a000760b0200000000000200200003f0230044
:1051b000520a020000000000fa0b0200000000008a
:1051c000c0118800f0c3b3003262b6003342a800b9
:1051d00033c2a90033a2a90033e2a90042a0a8006b
:1051e00087c0a90087e0a900b3c0bf0081cfb3008a
:1051f000014060000004a000b3e0b700b3c0bf00ee
:10520000f1c8b300014060000044a000b3e0b70063
:1052100097e0a80097c0a80032c2bf000008a30012
:1052200004003200b011800032c2bf000008a300a9
:10523000fcff3a001000200020ea88000000eb008c
:105240004f05be004f0478000080fa000000060001
:105250000000fa0000ea80008001eb00b4120200b6
:10526000000000000000cf000000ea004f00de0058
:105270000080fa00000006000200fa00014f7800ea
:1052800010ea80008001eb008e0078009811020087
:10529000000000008000eb00e10f500006003a0023
:1052a00011002000441de20003003200443def00e5
:1052b00087e0a80011002000010078000080fa00bb
:1052c000000006000000fa000080fa00000006005e
:1052d0003600f800809fbe00829fbe00849fbe0003
:1052e000869fbe003400f80000c0b300a001880013
:1052f0000400fa000000eb001007980087c0a90026
:1053000032c2bf000008a3000b003200b0118000c1
:10531000004f780000ea80008001eb000e81e80079
:105320008e007800681202000000000032c2bf0048
:105330000008a300f5ff3a001e0090000000e00006
:1053400003003200722b0200000000000000000089
:105350000080fa003400f9004f03be004f02be0087
:105360004f01be004f00be003600f90000400600ad
:105370003600f800809fbe00829fbe00849fbe0062
:10538000869fbe003400f80000c0b300a001880072
:105390000400fa000000eb001007980087e0a90065
:1053a00033c2bf000018a3000f003a0010ea8000cb
:1053b0000e81e8008e007800a613020000000000b5
:1053c000e10f500006003a001e00fb00a01188000b
:1053d00033c2bf000018a30003003a00f3ff3700f8
:1053e0001000200020ea88001e0090000000e0006d
:1053f00003003200722b02000000000000000000d9
:105400000080fa003400f9004f03be004f02be00d6
:105410004f01be004f00be003600f90000400600fc
:105420000000fa008000eb0081088800f108880085
:1054300031088800a10888006101b80000402200fe
:10544000410f2000300c02000000000060088800be
:105450001aa1ef00a7c0bf00f1c8b300014060006f
:105460000054a000a7e0b70084e0a90094e0a800e1
:1054700011e1a8001fe1a8000080fa00000006006a
:105480000000fa00a208800030ea8000e40f50001b
:105490000700360040ea80008000510090ea80005a
:1054a000808f50000400360091ea88000200370027
:1054b0000000e80030ea880042ea88000080fa0034
:1054c000000006003600f800809fbe00829fbe00ec
:1054d000849fbe00869fbe003400f80000c0b30069
:1054e000a00188000000fa00e5ff070084e0a900a1
:1054f0000080fa003400f9004f03be004f02be00e6
:105500004f01be004f00be003600f900004006000b
:105510000000fa0041002000300020002c110200a1
:1055200000000000a0ea88006033b800860278001e
:1055300014002000860178003207200081c42a0070
:1055400020b42200ea16020000000000a0ea800059
:105550000080fa00000006000000fa000000e000f1
:1055600004003a00203088002000200040308800ed
:10557000030037000426ef00000c200040308800b4
:105580003000200010180200000000000080fa0027
:10559000000006000000fa00889fbe0000047800aa
:1055a0001004e000090032001900200029308800b2
:1055b0001800fb0040308800300020001018020066
:1055c000000000005804e000f8ff3a004f04be005d
:1055d0000080fa00000006000000fa000426ef0038
:1055e0001000200040308800300020001018020019
:1055f000000000000080fa00000006000000fa0031
:10560000881f7800f03b280000308800f03f200021
:105610001030880018002000683088000426ef0051
:10562000300020001018020000000000c00320001d
:1056300040308800300020001018020000000000f8
:10564000c000200040308800300020001018020008
:1056500000000000483088003000200010180200d0
:105660000000000060002000403088003000200072
:1056700010180200000000004f0478000080fa00bb
:10568000000006000400fa00881f7800dbff070016
:10569000c0c42a00bfff07000004eb00a0ea80009e
:1056a0008001eb000081eb008e007800b412020054
:1056b00000000000e10f5000f8ff3a00c6ff0700ad
:1056c00061006400a4ff07000804e8001e009000c9
:1056d000b0ff07001e007800101802000000000054
:1056e000eeff37004200f800801f78000002200023
:1056f00010028800811f7800829fbe00849fbe0038
:10570000869fbe00889fbe008a9fbe008c9fbe0001
:105710008e1f78003600f8003200f8004400f800d0
:105720003400f80050ea8000801f780050e88000c4
:105730000f0878006c1b02000000000050e8800099
:10574000900778004f00780050ea88003400f90094
:105750004400f9003200f9003600f9004f077800e4
:105760004f06be004f05be004f04be004f03be00f3
:105770004f02be004f01be004f00be004200f900c4
:04578000000006001f
:020000040000fa
:10000800e02d0000e02d0000e02d0000e02d0000b4
:10001800e02d0000e02d0000e02d0000e02d0000a4
:10002800e02d0000e02d0000e02d0000321e000051
:10003800e02d0000e02d0000e02d0000622a000005
:10004800e02d0000e02d0000e02d0000e02d000074
:10005800e02d0000e02d0000e02d0000e02d000064
:10006800e02d0000e02d0000e02d0000e02d000054
:10007800e02d0000e02d0000e02d0000e02d000044
:10008800e02d0000e02d0000e02d0000e02d000034
:10009800e02d0000e02d000068290000b8290000cc
:1000a800e02d0000e02d0000e02d0000e02d000014
:1000b800e02d0000e02d0000e02d0000e02d000004
:1000c800e02d0000e02d0000e02d0000e02d0000f4
:1000d800e02d0000e02d0000e02d0000e02d0000e4
:1000e800e02d0000e02d0000e02d0000e02d0000d4
:1000f800e02d0000e02d0000e02d0000e02d0000c4
:10010800e02d0000e02d0000e02d0000e02d0000b3
:10011800e02d0000e02d0000e02d0000e02d0000a3
:10012800e02d0000e02d0000e02d0000e02d000093
:10013800e02d0000e02d0000e02d0000e02d000083
:10014800e02d0000e02d0000e02d0000e02d000073
:10015800e02d0000e02d0000e02d0000e02d000063
:10016800e02d0000e02d0000e02d0000e02d000053
:10017800e02d0000e02d0000e02d0000e02d000043
:10018800e02d0000e02d0000e02d0000e02d000033
:10019800e02d0000e02d0000e02d0000e02d000023
:1001a800e02d0000e02d0000e02d0000e02d000013
:1001b800e02d0000e02d0000e02d0000e02d000003
:1001c800e02d0000e02d0000e02d0000e02d0000f3
:1001d800e02d0000e02d0000e02d0000e02d0000e3
:1001e800e02d0000e02d0000e02d0000e02d0000d3
:0801f800e02d0000e02d0000e5
:020000040000fa
:10020800e02d0000e02d0000e02d0000e02d0000b2
:10021800e02d0000e02d0000e02d0000e02d0000a2
:10022800e02d0000e02d0000e02d0000321e00004f
:10023800e02d0000e02d0000e02d0000622a000003
:10024800e02d0000e02d0000e02d0000e02d000072
:10025800e02d0000e02d0000e02d0000e02d000062
:10026800e02d0000e02d0000e02d0000e02d000052
:10027800e02d0000e02d0000e02d0000e02d000042
:10028800e02d0000e02d0000e02d0000e02d000032
:10029800e02d0000e02d000068290000b8290000ca
:1002a800e02d0000e02d0000e02d0000e02d000012
:1002b800e02d0000e02d0000e02d0000e02d000002
:1002c800e02d0000e02d0000e02d0000e02d0000f2
:1002d800e02d0000e02d0000e02d0000e02d0000e2
:1002e800e02d0000e02d0000e02d0000e02d0000d2
:1002f800e02d0000e02d0000e02d0000e02d0000c2
:10030800e02d0000e02d0000e02d0000e02d0000b1
:10031800e02d0000e02d0000e02d0000e02d0000a1
:10032800e02d0000e02d0000e02d0000e02d000091
:10033800e02d0000e02d0000e02d0000e02d000081
:10034800e02d0000e02d0000e02d0000e02d000071
:10035800e02d0000e02d0000e02d0000e02d000061
:10036800e02d0000e02d0000e02d0000e02d000051
:10037800e02d0000e02d0000e02d0000e02d000041
:10038800e02d0000e02d0000e02d0000e02d000031
:10039800e02d0000e02d0000e02d0000e02d000021
:1003a800e02d0000e02d0000e02d0000e02d000011
:1003b800e02d0000e02d0000e02d0000e02d000001
:1003c800e02d0000e02d0000e02d0000e02d0000f1
:1003d800e02d0000e02d0000e02d0000e02d0000e1
:1003e800e02d0000e02d0000e02d0000e02d0000d1
:0803f800e02d0000e02d0000e3
:020000040000fa
:1057840043680000656300006b00000046410000b0
:10579400494c000020230000310000004641000075
:1057a400494c000020230000320000004641000064
:1057b400494c000020230000330000004641000053
:1057c400494c000020230000340000002564000040
:1057d4006e730000206d000061780000206a0000f4
:1057e40069740000746500007200000051430000f9
:1057f4006f6e000073420000310000005150000041
:10580400726f00006442000032000000515000003a
:10581400726f000064420000330000005143000036
:105824006f6e00007342000034000000515000000d
:10583400726f000064420000350000005143000014
:105844006f6e00007342000036000000111100006a
:105854002222000033330000444400005555000068
:105864006666000077770000888800009999000038
:10587400aaaa0000bbbb0000cccc0000dddd000008
:10588400eeee0000cecd0000acab00004c430000b7
:105894004400000077770000772e00004672000075
:1058a40065650000525400004f5300002e6f000045
:1058b400726700000000000096000000c8000000ad
:1058c400fa0000002c0100005e01000090010000bd
:1058d400c2010000f401000042540000657300009e
:1058e400743100000042000054650000737400002d
:1058f40032000000434f00004d54000078000000c7
:10590400434f00004d52000078000000496e000033
:10591400744d0000617400006800000049440000f8
:085924004c45000000000000ea
:020000040000fa
:10592c00f41c000016000000000000000a1d00001e
:10593c001600000002000000000000000000000043
:10594c00000000000000000000000000000000004b
:10595c000000000000000000521c00005400000079
:10596c00000000004a1d00000200000002000000c0
:10597c00ef000000500800000214000000000000be
:10598c00dc1c00001800000000000000301d0000ae
:10599c000a000000020000000000000000000000ef
:1059ac000000000000000000a61c000036000000f3
:1059bc00000000004c1d000002000000020000006e
:1059cc00010000004e1d000002000000000000005d
:1059dc00201d00001000000000000000501d000001
:1059ec0002000000000000003a1d0000060000004c
:1059fc0000000000401d0000060000000000000038
:105a0c00521d000002000000020000000000000017
:105a1c00461d00000400000000000000541d0000a2
:105a2c000200000000000000781d000012000000c1
:105a3c000200000001000200000400000800100039
:105a4c0000000000202b2d00233000008a1d0000d8
:105a5c000800000002000000686a6c00747a4c00b8
:105a6c0000000000561d0000220000000200000093
:105a7c00303132003334350036373800396162004a
:105a8c006364650066003000313233003435360013
:105a9c0037383900414243004445460000000000bd
:045aac0000000000f6
:020000040000fa
