:020000040000fa
:080000000020040000000000d4
:020000040000fa
:10400000af0223000e7f24000e0188000000000094
:104010000c000700c033230001002000110007003e
:10402000000020000000e00002003200000002005a
:104030000000000040340200000000000040da00f0
:104040000000fe004440a900c00220000000e00083
:104050000300320000002000a00188004440a800b6
:104060000000060091018800800078000000eb004d
:1040700015003700e280400032a0b4009101ba0080
:10408000e280400032a0b4009102ba00e280400019
:1040900032a0b4000002eb00472bde00f507b200af
:1040a000602ce10004003a000059eb008301e900b4
:1040b000fdff3e00040037006128e10001003200ee
:1040c0000082eb00040007001101ba000200e000ca
:1040d000e8ff3a00000006003159ba008301e90008
:1040e0000c0032002159ba008301e90008003200b7
:1040f0000400e00003003a00e280400032a0b40077
:10410000f5ff370011d9ba008301e900faff3a0040
:104110008100e800e180400032a0b4000000060009
:104120001c2604000000000098330400000000007a
:104130008001eb000200370061f079008301e800a4
:10414000828f5100fcff3a00000006000003780057
:1041500080027800020278008001eb00080037003e
:104160000402e90063c07800805a78008301e80007
:104170000004e00002003a008000eb000600370077
:10418000828f5100f6ff3a00fbff37000040eb0042
:1041900080f07a008100e800848f5000fbff3a0035
:1041a00006007800000006008001eb0002003700e6
:1041b000817178008301e800828f5100fcff3a0092
:0441c00000000600f5
:020000040000fa
:020000040002f8
:04aff400ffff00005b
:020000040000fa
:020000040002f8
:04aff8002e430000e4
:020000040000fa
:020000040002f8
:04affc007f1e0000b4
:020000040000fa
:1000080052340000523400005234000052340000d0
:1000180052340000523400005234000052340000c0
:10002800523400005234000052340000de31000027
:1000380052340000523400005234000052340000a0
:100048005234000052340000523400005234000090
:100058005234000052340000523400005234000080
:100068005234000052340000523400005234000070
:100078005234000052340000523400005234000060
:100088005234000052340000523400005234000050
:100098005234000052340000523400005234000040
:1000a8005234000052340000523400005234000030
:1000b8005234000052340000523400005234000020
:1000c8005234000052340000523400005234000010
:1000d8005234000052340000523400005234000000
:1000e80052340000523400005234000052340000f0
:1000f80052340000523400005234000052340000e0
:1001080052340000523400005234000052340000cf
:1001180052340000523400005234000052340000bf
:1001280052340000523400005234000052340000af
:10013800523400005234000052340000523400009f
:10014800523400005234000052340000523400008f
:10015800523400005234000052340000523400007f
:10016800523400005234000052340000523400006f
:10017800523400005234000052340000523400005f
:10018800523400005234000052340000523400004f
:10019800523400005234000052340000523400003f
:1001a800523400005234000052340000523400002f
:1001b800523400005234000052340000523400001f
:1001c800523400005234000052340000523400000f
:1001d80052340000523400005234000052340000ff
:1001e80052340000523400005234000052340000ef
:0801f8005234000052340000f3
:020000040000fa
:1002080052340000523400005234000052340000ce
:1002180052340000523400005234000052340000be
:10022800523400005234000052340000de31000025
:10023800523400005234000052340000523400009e
:10024800523400005234000052340000523400008e
:10025800523400005234000052340000523400007e
:10026800523400005234000052340000523400006e
:10027800523400005234000052340000523400005e
:10028800523400005234000052340000523400004e
:10029800523400005234000052340000523400003e
:1002a800523400005234000052340000523400002e
:1002b800523400005234000052340000523400001e
:1002c800523400005234000052340000523400000e
:1002d80052340000523400005234000052340000fe
:1002e80052340000523400005234000052340000ee
:1002f80052340000523400005234000052340000de
:1003080052340000523400005234000052340000cd
:1003180052340000523400005234000052340000bd
:1003280052340000523400005234000052340000ad
:10033800523400005234000052340000523400009d
:10034800523400005234000052340000523400008d
:10035800523400005234000052340000523400007d
:10036800523400005234000052340000523400006d
:10037800523400005234000052340000523400005d
:10038800523400005234000052340000523400004d
:10039800523400005234000052340000523400003d
:1003a800523400005234000052340000523400002d
:1003b800523400005234000052340000523400001d
:1003c800523400005234000052340000523400000d
:1003d80052340000523400005234000052340000fd
:1003e80052340000523400005234000052340000ed
:0803f8005234000052340000f1
:020000040000fa
:1041c4001111000022220000333300004444000097
:1041d4005555000066660000777700008888000067
:1041e40099990000aaaa0000bbbb0000cccc000037
:1041f400dddd0000eeee0000cecd0000acab000033
:10420400494400004c4500000000000055410000f6
:084214005254000000000000fc
:020000040000fa
:10421c00108081000000e80010808900000006007a
:10422c00889fbe008a1f7800000578008104780002
:10423c00e38f50000100360039002000c831020025
:10424c000000000080808100800f550002003a00c1
:10425c000005eb00020037000a00e00002003a0003
:10426c0088808100010037000a0478002811900032
:10427c00890f510030003200828f54000300360049
:10428c000a00e00003003a00040037000a00e000d6
:10429c0002003a001a002000010037000005eb0074
:1042ac0058089000800f510001003a00590c9800fa
:1042bc002914980040002000010020000900500043
:1042cc00e080580070049800010c98006c11b90043
:1042dc0060f4220002004000e8009000808f500043
:1042ec0010003a008884e800090078001e330200b0
:1042fc0000000000d808900030808100808f5000b2
:10430c000100360031808900580990006c11b90009
:10431c0060f422000200400089007800da320200ca
:10432c0000000000e10f550003003a001c320200af
:10433c000000000000000000d2310200000000006c
:10434c004f0578004f04be0000000600889fbe0099
:10435c008a1f780080047800c83102000000000039
:10436c0080808100808f540002003a008004eb00b2
:10437c00020037000900e00002003a00888081004a
:10438c0001003700090478000885e8000a0078006d
:10439c001e33020000000000480890000000e000fe
:1043ac00030032006e0044001e33020000000000c7
:1043bc008a00780020f12200da32020000000000ae
:1043cc00d2310200000000000900e00003003a00b6
:1043dc001c32020000000000000000004f057800b5
:1043ec004f04be000000060000017800e0009000c1
:1043fc0020f12200808f500007003a00c208900084
:10440c00e0f12200808f50000300320010002000e9
:10441c000100e000010032000000eb00000006008b
:10442c00889fbe00000478000000e00023003200ea
:10443c0080808100800f540020003200c8310200bf
:10444c000000000008007800e7ff0700e10f5000b3
:10445c0018003a008884e800090078001e33020036
:10446c0000000000d808900030808100808f500040
:10447c000100360031808900580990006c11b90098
:10448c0060f422000200400089007800da32020059
:10449c000000000080808100d80890005008900037
:1044ac00808f5000030039001c3202000000000015
:1044bc0000000000d2310200000000004f04be00da
:1044cc0000000600889fbe008a1f78000004780058
:1044dc00c5ff07000005eb00e10f500020003a007b
:1044ec00118081000100e00018003a0080808100fa
:1044fc0001057800d808900050089000808f50007b
:10450c00010039001a0020008884e80009007800b6
:10451c001e33020000000000d8089000308081009b
:10452c00808f5000010036003180890058099000be
:10453c006c11b90060f42200020040008900780080
:10454c00da3202000000000005003700ee004400e3
:10455c00e0f12200da320200000000000005eb005e
:10456c000a0078004f0578004f04be0000000600da
:10457c00ff3ffc000000eb0020808900c6310400e6
:10458c0000000000881f7800108081000000e0000f
:10459c0039003a0050808100618081006100400048
:1045ac00e080480050808900618089005080810043
:1045bc0061808100e00f5000e08f580024003a0029
:1045cc006079810051798100617989005079890085
:1045dc00e07f81000000e800e07f89001c003700cc
:1045ec00528081006380810018009000a800900028
:1045fc00800f5100818f5900220039000880e8009b
:10460c001e33020000000000480890000000e0008b
:10461c00030032006e0044001e3302000000000054
:10462c00d808900030808100808f50000100360047
:10463c00318089008880e800580990006c11b9001d
:10464c0060f4220002004000da3202000000000098
:10465c00607981001000e0000a003200607981006e
:10466c004000900040009000000478000000e00042
:10467c00dbff3a0003003700008081000000e800f7
:10468c00008089004f04780000000600889fbe005f
:10469c00c831020000000000108081000000e90019
:1046ac0010808900118081000100e0003d003a007b
:1046bc00708081000000e0003a0032008104780034
:1046cc00180037006e0044001e330200000000008a
:1046dc000880e8001e33020000000000d80890009b
:1046ec0030808100808f50000100360031808900bd
:1046fc008880e800580990006c11b90060f4220021
:10470c0002004000da32020000000000d8089000dd
:10471c008080810050089000808f5000010039008b
:10472c0019002000f07881000000e0000500320044
:10473c003079810040009000000478000000e00017
:10474c00e0ff3a00008081000000e00005003a0024
:10475c00080037008bff0700008081000000e90093
:10476c0000808900008081000000e000f9ff3a0021
:10477c0005003700e18f540003003200f07f810008
:10478c00e10f500007003a000000eb00f07f8900b9
:10479c001c32020000000000000000001800200085
:1047ac00010037000004eb00d231020000000000d1
:1047bc00080078004f04be0000000600889fbe0071
:1047cc008a9fbe000005be00e00f5000e08f58002d
:1047dc001c0032008efe0700588081006980810029
:1047ec000804450089844d00808081000080e80029
:1047fc001e33020000000000808081001800980029
:10480c00290098005080810061808100800f540045
:10481c00818f5c0003003100818081005079810020
:10482c000200370081808100607981008180e8007e
:10483c00f23202000000000094ff07000000e000cc
:10484c0003003a001c3202000000000000000000cf
:10485c004f05be004f04be0000000600889fbe003e
:10486c008a1f7800000578000204be0068fe07006d
:10487c001a01be000204440083844c005080810065
:10488c0061808100820f5000838f5800040031003a
:10489c00820f5400838f5c00090031000300370045
:1048ac00820f5400838f5c00070039005080810018
:1048bc0061808100800f5400818f5c0002003e00fb
:1048cc000000eb000100370010002000088dbe0036
:1048dc000000e00014003200808081000080e800bd
:1048ec001e33020000000000808081001800980038
:1048fc00290098005080810061808100800f540055
:10490c00818f5c000300310081808100507981002f
:10491c000200370081808100607981008180e8008d
:10492c00f23202000000000058ff07000000e00017
:10493c0003003a001c3202000000000000000000de
:10494c004f0578004f04be0000000600889fbe0093
:10495c00c83102000000000058808100698081008d
:10496c00d2310200000000000800be004f04be005f
:10497c00000006007080810000000600108081009d
:10498c000000e0000600320010002000f07f8900db
:10499c0000000600308081000000e90030808900b2
:1049ac00308081006c00b90062f422006200780053
:1049bc000000e000f7ff3200308081006c00b9008d
:1049cc00800041001100900020019000920098009e
:1049dc0064804000800f510002003a0022019000d8
:1049ec009200980011009000400090008080890097
:1049fc0000000600889fbe000204be00818081007a
:104a0c00ee804000f2320200000000008080810045
:104a1c000080e8001e33020000000000e10f44009b
:104a2c00e08f4c0006003a00818081008180e80014
:104a3c0020f12200da3202000000000014003700de
:104a4c0050808100618081000000440081804c0016
:104a5c008280810010019800210198005280810011
:104a6c0063808100820f5000838f58000300310057
:104a7c0081808100507981000200370081808100a3
:104a8c00607981008180e800f232020000000000b1
:104a9c004f04be0000000600881f780080007800dc
:104aac00100078000000e00002003a0000047800da
:104abc000200370041009000400490006e0044005a
:104acc001e33020000000000108081000000e00096
:104adc000e003a000880e8001e33020000000000bf
:104aec00d808900030808100808f50000100360083
:104afc00318089008880e800580990006c11b90059
:104b0c0060f422000200400002003700ee00440076
:104b1c00e0f12200da320200000000005808900098
:104b2c0081808100d10890000001eb00810f5000c2
:104b3c000100390012002000020078004f047800b8
:104b4c0000000600e17f810001087800528081009e
:104b5c00638081001200980023009800000006007a
:104b6c00889fbe008a1f7800000478000105780039
:104b7c00c8310200000000001a02be008004eb00e5
:104b8c00e10f4200e08f4a001e003200e07f8100fe
:104b9c00980f500007003200528081006380810022
:104bac0018009000a8009000800f5100818f5900d0
:104bbc001300310050808100618081001801900049
:104bcc00a80190000200500083805800840f500010
:104bdc00858f58000a00310050808100618081006f
:104bec000200500083805800001d520001955a00ad
:104bfc0008007800d3ff07008004eb0001003700a9
:104c0c0019002000d23102000000000009007800d9
:104c1c004f0578004f04be00000006001000200075
:104c2c00f07f890000000600000006004a340200f4
:104c3c0000000000fdff3700889fbe008a1f78002f
:104c4c0080047800020578007e00400042002000bd
:104c5c00a6200200000000000040eb0090649800c9
:104c6c00e30f5500010036003a002000da0c9800e2
:104c7c00aa1498000980e800d43202000000000059
:104c8c006e84440008007800d4320200000000005a
:104c9c00d904980040002000010020000a005000b8
:104cac00e0805800008cbe00b90c98004f057800cd
:104cbc004f04be0000000600881f780068f4220034
:104ccc0008007800c4320200000000006c044400ac
:104cdc0060f72200800f5400f9ff3a00a0f3220085
:104cec00c432020000000000e0f22200c4320200d4
:104cfc0000000000e0f12200c432020000000000bd
:104d0c0020f12200c432020000000000a0f32200b7
:104d1c0060798900e0f22200507989004f04780014
:104d2c0000000600889fbe008a1f780000047800ef
:104d3c0060022000e43302000000000080047800d0
:104d4c000000e00011003200080544000a00780061
:104d5c00e43302000000000000047800e00c98002e
:104d6c000000e00005003a0009007800163402004b
:104d7c000000000088047800040037000a01780065
:104d8c00510a2000d4200200000000000900780025
:104d9c004f0578004f04be0000000600e687470070
:104dac00889fbe008a9fbe008c9fbe008e1f78001d
:104dbc00f0b79f00810678000205780003077800a1
:104dcc000406780085bf9f00860078008705780070
:104ddc0002007800d3ff0700800478000080eb000d
:104dec000900e00049003200690c90000a004500ff
:104dfc00000044000080e900901498000a0278003a
:104e0c008b0178000c0178008d0078000900780087
:104e1c0089ff07000e017800ffb0970008007800aa
:104e2c005831020000000000800c7800c8310200ec
:104e3c0000000000708081000000e8007080890094
:104e4c0070808100e10f500003003a0089808900d6
:104e5c0099ff070008003700208081000000e00067
:104e6c0005003a0080808100500890008c0f5000a3
:104e7c0001003e0089808900d908900040808100a3
:104e8c00808f50000100360041808900d07f810066
:104e9c000000e800d07f8900d908900030808100a4
:104eac00808f500001003600318089008980e80035
:104ebc00590990006c11b90060f422000200400006
:104ecc00da32020000000000d231020000000000c3
:104edc000fb897000000e0000100320009087800cc
:104eec00208081000000e0000700320080808100fb
:104efc00500890008c0f5000030031001c3202004f
:104f0c000000000000000000100020004f07780097
:104f1c004f06be004f05be004f04be006f00b1002f
:104f2c00000006006033b8008602780006027800a4
:104f3c00860178000210200021102a00c061220096
:104f4c0096ff0700e10f500007003a00ff3ffc00fe
:104f5c00208089006000b800508089006180890041
:104f6c009e310200000000000000060080808100dd
:104f7c0000000600208081000000e00005003200e7
:104f8c00118081000100ea00010070004f00de007a
:104f9c000000e80000000600889fbe0000047800b6
:104fac0080808100d809900050089000808f5100bb
:104fbc0024003100808081005009900040002000c6
:104fcc000100200002005000e0805800700498009e
:104fdc00010c98006c19b90060f42200020040002a
:104fec00e8009000808f500013003a008884e8009d
:104ffc00090078001e330200000000008080810050
:10500c00d0089000510c980030808100808f5000a7
:10501c000100360031808900580990006c11b900ec
:10502c0060f422000200400089007800da320200ad
:10503c0000000000030037008080810050089000c1
:10504c00500c98004f04be0000000600889fbe0064
:10505c00000478000000e0001b003200d008900033
:10506c0020109000808f5000170032008884e800d8
:10507c00090078001e330200000000002811900087
:10508c00520c98004000200001002000020050004b
:10509c00e080580070049800010c9800308081006a
:1050ac00800f5100010036003280890058099000b1
:1050bc006c11b90060f422000200400089007800f5
:1050cc00da320200000000004f04be0000000600af
:1050dc00889fbe008a9fbe008004780081057800fe
:1050ec000000e00027003200a0022000e4330200a0
:1050fc0000000000000478000000e00021003200f5
:10510c000bc8b900000578000000e800e433020089
:10511c000000000000017800000c78000000e000a6
:10512c00150032000a004000100498000000eb004b
:10513c0000149800220498000900e9000b80b900c3
:10514c000000410030049800191498002b149800aa
:10515c000080eb0030149800401498006800440064
:10516c00c43202000000000074004400c43202008b
:10517c00000000000400370008007800163402001c
:10518c00000000000004eb00080078004f05be0092
:10519c004f04be0000000600881f78000104780050
:1051ac008000eb00caff07000000e00001003200a5
:1051bc00081098004f04780000000600889fbe007d
:1051cc0000047800c8310200000000008810900034
:1051dc008004eb0018109000808f500001003a0002
:1051ec0019002000d23102000000000009007800f4
:1051fc004f04be0000000600881f780000047800f1
:10520c00c83102000000000008149000d2310200e6
:10521c00000000000800ea00080070004f00de00eb
:10522c00610010004f04780000000600881f780011
:10523c0000047800c831020000000000081490003f
:10524c00d231020000000000080078004f04780002
:10525c000000060000109000000006008000eb002b
:10526c0082f72200920f100005003a004209dd007f
:10527c008000eb0060f7220001317800000006008e
:10528c008100e80064014100f48f5000f5ff3a0002
:10529c0000000600881f780000047800efff07006c
:1052ac001800780016340200000000000800780096
:1052bc0016340200000000004f04780000000600c5
:1052cc000001be001000e0000e0032003000900023
:1052dc00a210900001004000300198009200900054
:1052ec00810f500002003900120078003001980044
:1052fc00b200900022119000030078009820020068
:10530c000000000000000600889fbe00000478002a
:10531c0082047800001090000000e00016003200bb
:10532c0008007800e6ff0700081090000000e90074
:10533c000014980038109000e10f40000b003a0068
:10534c00480090000000e0000a00320068004400b1
:10535c0052250200000000000000e00005003200b1
:10536c0010002000800c7800030037000000e800db
:10537c0030149800100020004f04be0000000600fe
:10538c00889fbe0000047800a01490000900e00083
:10539c0007003a001000e00022003a0010009000d4
:1053ac002c28020000000000190498001d00370092
:1053bc000200e0000e003a00200090000901780085
:1053cc00982002000000000028009000a810900017
:1053dc00010040002004980098009000810f5000bc
:1053ec001000390018007800200498000d003700d8
:1053fc0030009000090178009820020000000000a5
:10540c0038009000a8109000010050003004980063
:10541c00980f50000300310018009000010050005c
:10542c0030049800081090000000e8000014980068
:10543c004f04be0000000600889fbe0000047800e8
:10544c00010278008204780003017800801090003b
:10545c00101090008001eb00808f5000150031007f
:10546c008400780008007800c5ff07004810900001
:10547c00e10f40000c003a00280890000000e0000a
:10548c000b003200740044005225020000000000a2
:10549c000000e0000600320010002000800c7800b4
:1054ac0080017800030037000000e80040149800e9
:1054bc0013002000030078004f04be00000006001b
:1054cc00881f780000047800c8310200000000003a
:1054dc000d003700280890000000e0000d0032009d
:1054ec007400440052250200000000000000e0009f
:1054fc000200320014260200000000004810900048
:10550c000000e90040149800481090000000e000f2
:10551c00f0ff3c000080eb0040149800d2310200f8
:10552c0000000000c8310200000000000d00370030
:10553c00480090000000e0000d00320068004400bc
:10554c0052250200000000000000e00002003200c2
:10555c001426020000000000381090000000e90042
:10556c0030149800381090000000e000f0ff3c0070
:10557c000080eb0030149800d231020000000000d3
:10558c004f047800000006000a00fa00889fbe0055
:10559c008a9fbe000004780001057800a2bf9f001e
:1055ac00b3bf9f00840578008004eb00c831020073
:1055bc0000000000081090000000e00027003200fe
:1055cc00b80490008a007800080078003cff0700bf
:1055dc000b00e00011003a00081090000000e900f8
:1055ec00001498001800e00003003a00bc270200e9
:1055fc000000000010049800480090000000e0003b
:10560c001200320068004400522502000000000025
:10561c00e10f50000d003a000900370039049800e2
:10562c00280890000000e0000800320074004400dc
:10563c0052250200000000000000e00003003200d0
:10564c001c3202000000000000000000d2310200f9
:10565c0000000000100020004c0037002fb897000d
:10566c00bfb89700e00f5000e08f580003003a00dd
:10567c00d231020000000000430037000900e000b6
:10568c0004003a0072805700a825020000000000b8
:10569c0019002000d2310200000000000e2102008f
:1056ac0000000000c831020000000000381090001b
:1056bc00e10f400002003a000000eb0030149800ab
:1056cc0048109000e10f400002003a000000eb008f
:1056dc0040149800d231020000000000ec8057000a
:1056ec0072805700b6250200000000000000e000a8
:1056fc0021003a0008007800bffe07000000e0001f
:10570c00180032001800e00007003a00c83102000f
:10571c000000000018009000d227020000000000da
:10572c00d231020000000000740044002fb9970031
:10573c00bfb99700002502000000000008007800a7
:10574c005fff07004c230200000000000000e00097
:10575c0096ff3a001c32020000000000000000001e
:10576c0092ff37000800780055ff07004c23020019
:10577c00000000008dff37000800780050ff070084
:10578c004c230200000000000000eb004f05be009f
:10579c004f04be000080fa0000000600889fbe0087
:1057ac008a9fbe00800478000205be0010049000a1
:1057bc00bc27020000000000800f540005003a00d6
:1057cc00390090000000e800b0049800110020009f
:1057dc000b0037000002eb000a01be0084007800c9
:1057ec000900780068ff070080007800e10f500086
:1057fc0003003a00390090000000e800b004980063
:10580c00010078004f05be004f04be0000000600ea
:10581c000a00fa00889fbe008a9fbe000004780030
:10582c0001057800a2bf9f00b3bf9f0084047800dd
:10583c008005eb00c83102000000000088109000c9
:10584c0018109000808f500013003100090178006f
:10585c008a00780008007800c9fe0700280890002c
:10586c000000e000080032007400440052250200e1
:10587c0000000000e10f500003003a001c3202004f
:10588c000000000000000000d23102000000000007
:10589c0010002000430037002fb89700bfb89700c6
:1058ac00e00f5000e08f580003003a00d2310200a4
:1058bc00000000003a0037000b00e00004003a0042
:1058cc0072805700a8250200000000001b00200079
:1058dc00d2310200000000000e2102000000000086
:1058ec00c83102000000000038109000e10f4000a9
:1058fc0002003a000000eb003014980048109000b1
:10590c00e10f400002003a000000eb004014980048
:10591c00d231020000000000ec805700728057006a
:10592c00b6250200000000000000e00018003a005c
:10593c000800780021fe07000000e0000f00320094
:10594c00680044002fb99700bfb9970000250200ea
:10595c000000000008007800d9fe07004c2302006c
:10596c00000000000000e000b2ff3a001c32020010
:10597c000000000000000000aeff370008007800b7
:10598c00cffe07004c23020000000000a9ff3700e7
:10599c0008007800cafe07004c230200000000003b
:1059ac000000eb004f05be004f04be000080fa0063
:1059bc0000000600889fbe00800478001004900050
:1059cc00bc270200000000008000eb00800f540098
:1059dc000b003a00390090000000e900b004980078
:1059ec001100200006003a000002eb006011b80024
:1059fc00840078000900780085ff07001100200062
:105a0c00010078004f04be0000000600889fbe0015
:105a1c00a0022000e43302000000000080047800a3
:105a2c000000e000170032000004eb0018009800a2
:105a3c000808780028009800380098000810980092
:105a4c001000200090149800a81498000080eb001f
:105a5c00b0149800c014980068804400c43202004e
:105a6c000000000074804400c432020000000000fa
:105a7c00080278006011b8008800780009007800ee
:105a8c0063ff0700090078004f04be000000060009
:105a9c00801090000100ea00010070004f00de0051
:105aac006100100000000600801090000001eb0067
:105abc0010109000808f500001003a00120020005e
:105acc000200780000000600000278000000eb00e5
:105adc0062f72200820178001200e00005003a0013
:105aec004200dd0001b079000080e80004b07900cc
:105afc00000006000000e80064014100f40f5000b3
:105b0c00f5ff3a0000000600889fbe008a1f78004f
:105b1c000004be0002057800d0808100e180810085
:105b2c000804400089844800008181000080e8005e
:105b3c001e33020000000000008181001800980054
:105b4c0029009800d0808100e1808100800f5400f2
:105b5c00818f5c0004003100018181008180e800ac
:105b6c00907e810003003700018181008180e80074
:105b7c00a07e8100f2320200000000000a00e0006a
:105b8c000500320001818100ee8040000a0078009f
:105b9c00f2320200000000004f0578004f04be00f6
:105bac0000000600881f78001b003700ff3ffc0038
:105bbc00307e81000000e00002003a000004780012
:105bcc0002003700707e8100400490006e0044009b
:105bdc001e330200000000000000fc000880e800fa
:105bec001e33020000000000d8089000f0808100f5
:105bfc00808f500001003600f18089008880e80019
:105c0c00580990006c11b900e0fe2200020040001f
:105c1c00da32020000000000307e81000000e0005b
:105c2c00e2ff3a004f04780000000600881f78005d
:105c3c00ac24020000000000b2808100c38081000f
:105c4c00020050008380580090808900a180890058
:105c5c0038003700d0808100e18081006100400075
:105c6c00e0804800d0808900e1808900610151000a
:105c7c00e081590092808900a3808900e00f5000d8
:105c8c00e08f580023003a00a07e8100917e8100b5
:105c9c00a17e8900907e89001e00370018019000bb
:105cac00a8019000d0808100e1808100820f50001b
:105cbc00838f58001f003900ff3ffc000880e8006c
:105ccc001e33020000000000480890000000e000b5
:105cdc00030032006e0044001e330200000000007e
:105cec000000fc00d8089000f0808100808f5000ec
:105cfc0001003600f18089008880e8005809900086
:105d0c006c11b900e0fe220002004000da32020001
:105d1c0000000000a07e81001000e00005003200b1
:105d2c004000900040009000000478000000e0006b
:105d3c00daff3a0092808100a3808100e00f5100cd
:105d4c00e08f5900c3ff3a00d0808100e1808100d0
:105d5c00b0808900c18089004f04780000000600e3
:105d6c0090ff0700b1ff0700e4fe2200040037009b
:105d7c000300e000150032000300e900f080890008
:105d8c00f38081006c18b900000142001200e000a1
:105d9c00f7ff320012009000a00090001101980053
:105dac0064004100808f500002003a00a100900076
:105dbc0011019800120090004000900000818900b1
:105dcc0010017800e00890000200010000000600bd
:105ddc00e0fe2200c43202000000000020fe22007f
:105dec00c43202000000000060fd2200c432020038
:105dfc000000000060fc2200c43202000000000021
:105e0c0020fe2200a07e890060fd2200907e890089
:105e1c0000000600889fbe008a9fbe0080057800a7
:105e2c000204780000022000e433020000000000ad
:105e3c00800478000080eb000900e00024003200b0
:105e4c00008181000000e00002003a000981890015
:105e5c00dfff07000000eb00f00c9800d00c98005e
:105e6c00e80c9800090578000b1d78000a007800f2
:105e7c00d4320200000000006e8444000800780058
:105e8c00d432020000000000d9049800b90c98002c
:105e9c004000200001002000008cbe00d9089000ba
:105eac00f0808100808f500001003600f180890065
:105ebc00590990006c11b900e0fe2200020040006c
:105ecc008a007800da320200000000001000200086
:105edc004f05be004f04be0000000600889fbe00a8
:105eec00900078000100e00002003a008104780084
:105efc000200370040009000c00490006e84440003
:105f0c00080078001e3302000000000088007800b2
:105f1c0060fc2200da32020000000000d908900078
:105f2c0000818100500890000001eb00808f500030
:105f3c000100390012002000020078004f04be005e
:105f4c0000000600e1cf500011003a000004e00010
:105f5c0003003200e14f50000d003a0006003700fc
:105f6c00e14f510002003a00c802a80000000600f0
:105f7c00c802a90000000600e14f510002003a00df
:105f8c00c822a80000000600c822a90000000600d4
:105f9c00e2cf500011003a00ec4f500003003200e9
:105fac00ed4f50000d003a0006003700e14f510054
:105fbc0002003a00d182a80000000600d182a9009c
:105fcc0000000600e14f510002003a00d1a2a800e7
:105fdc0000000600d1a2a90000000600e3cf50008b
:105fec0017003a00e14f50000a003200030039005c
:105ffc00e24f500012003a000c003700e14f510004
:10600c0002003a00d802a80000000600d802a9003d
:10601c0000000600e14f510002003a00d822a8000f
:10602c0000000600d822a90000000600e14f510034
:10603c0002003a00d842a80000000600d842a9008d
:10604c00000006000204e00002003a000341780060
:10605c00bcff070000000600e1cf500009003a0029
:10606c000004e00003003200e14f500005003a004c
:10607c0002003700c8c2bf0019003700c8c2bf00f9
:10608c001b003700e2cf50000d003a00ec4f5000df
:10609c0003003200ed4f500009003a0004003700b5
:1060ac00d1c2bf000048a30013003a00140037000f
:1060bc00d1c2bf000058a3000f003a0010003700f7
:1060cc00e3cf50000f003a000004e0000300320060
:1060dc00e14f50000b003a0004003700d8c2bf005b
:1060ec000008a30004003a0005003700d8c2bf0026
:1060fc000018a3000200320010c0b30001003700ea
:10610c000040eb000080fb0000000600e1cf5000d7
:10611c0011003a000004e00003003200e14f50008f
:10612c000d003a0006003700e14f510002003a0022
:10613c00ca02a80000000600ca02a900000006005e
:10614c00e14f510002003a00ca22a80000000600ec
:10615c00ca22a90000000600e2cf500011003a004c
:10616c00ec4f500003003200ed4f50000d003a0090
:10617c0006003700e14f510002003a00d382a8001c
:10618c0000000600d382a90000000600e14f510078
:10619c0002003a00d3a2a80000000600d3a2a90076
:1061ac0000000600e3cf500010003a000004e000ad
:1061bc0003003200e14f50000c003a00060037009b
:1061cc00e14f510002003a00da02a800000006007c
:1061dc00da02a90000000600e14f510002003a006b
:1061ec00da22a80000000600da22a900000006004e
:1061fc00e1cf500009003a000004e0000300320037
:10620c00e14f500005003a0002003700cac2bf003f
:10621c0019003700cac2bf001b003700e2cf500084
:10622c000d003a00ec4f500003003200ed4f5000cf
:10623c0009003a0004003700d3c2bf000048a30095
:10624c0013003a0014003700d3c2bf000058a3005b
:10625c000f003a0010003700e3cf50000f003a0057
:10626c000004e00003003200e14f50000b003a0044
:10627c0004003700dac2bf000008a30004003a0093
:10628c0005003700dac2bf000018a300020032007c
:10629c0010c0b300010037000040eb000080fb0091
:1062ac0000000600010878008000eb001100980047
:1062bc002100980032009800e8004000200e2a00cf
:1062cc0022102a0001003700b0187800820f50000d
:1062dc00fdff3a002002800080087800a0018000b9
:1062ec00900098000000eb00a00098006680400031
:1062fc00000006000000eb00200888000008880061
:10630c00007d200010088800a5c0bf000044a1003b
:10631c000046b300a5e0b7008460a9009460a80013
:10632c000481a80004a1a90005e1a8000000060052
:10633c00f0ff070080808100900778004f00780004
:10634c00108189003400f9004400f9003200f90092
:10635c003600f9004f0778004f06be004f05be000f
:10636c004f04be004f03be004f02be004f01be00e3
:10637c004f00be004200f9000000060010000500ae
:10638c0000000600ff3ffc00108181000000e800c7
:10639c001081890000000600108181000000e900d6
:1063ac001081890001003a000000fc00000006008a
:1063bc003600f800809fbe00829fbe00849fbe0006
:1063cc00869fbe003400f80000002000a001880069
:1063dc00ff3ffc008460a900c822020000000000fe
:1063ec0070320200000000000000000020818100db
:1063fc000000e8002081890081382100810f5000c5
:10640c0002003a000000eb00208189000000fc0033
:10641c003400f9004f03be004f02be004f01be0016
:10642c004f00be003600f900004006004200f800a4
:10643c00801f7800ff3ffc00000220001002880043
:10644c00811f7800829fbe00849fbe00869fbe0085
:10645c00889fbe008a9fbe008c9fbe008e1f780056
:10646c003600f8003200f8004400f8003400f80060
:10647c0010818100801f7800808081000f087800d7
:10648c00c424020000000000808081009007780086
:10649c004f007800108189003400f9004400f900a5
:1064ac003200f9003600f9004f0778004f06be00a5
:1064bc004f05be004f04be004f03be004f02be008e
:1064cc004f01be004f00be004200f9000000fc006e
:1064dc00000006004200f800801f7800ff3ffc001f
:1064ec000002200010028800811f7800829fbe00ed
:1064fc00849fbe00869fbe00889fbe008a9fbe0000
:10650c008c9fbe008e1f78003600f8003200f80019
:10651c004400f8003400f80010818100801f7800de
:10652c00808081000f087800c42402000000000065
:10653c0080808100900778004f00780010818900de
:10654c003400f9004400f9003200f9003600f9007b
:10655c004f0778004f06be004f05be004f04be002b
:10656c004f03be004f02be004f01be004f00be00e5
:10657c004200f9000000fc0000400600e40040006e
:10658c00110098008098eb008090eb00410098007f
:10659c00510098000008eb00000006008000eb00a2
:1065ac00510098000000060090019000230190001b
:1065bc00a200980010019000b200980023019000f6
:1065cc0031019800a101980011009800d0009800aa
:1065dc001008e80000000600800178001102be00df
:1065ec00e10f4200e08f4a0002003a005001900097
:1065fc0007003700640140000100370022019000c1
:10660c0022009000b00f1200a08f1a00fbff360082
:10661c0022009000a000980031009800b200980071
:10662c0021019800d30098009309e80000000600af
:10663c000001780020009000b2009000310098001a
:10664c00b2019000a0019800d200900011009000bf
:10665c00820f500001003a00930098000000eb00fc
:0c666c00500198009108e90000000600b1
:020000040000fa
:1066780012300000100000000200000000000000be
:106688000000000000000000000000000000000002
:1066980000000000c62f00003400000000000000c9
:1066a800000800001227000000000000223000004f
:1066b8000200000002000000ef000000243000008b
:1066c8000200000000000000762f000050000000cb
:1066d80000000000fa2f000018000000020000006f
:1066e80000000000000000000000000000000000a2
:1066f8000000000000000000000000000000000092
:10670800122f000064000000000000002630000086
:106718000200000000000000283000000200000015
:08672800000000000000000069
:020000040000fa
:106730000200fa00408181000000e0000b003200fe
:10674000408181000002eb0042062000030020008f
:106750008f80e900ca2a0200000000004081810009
:106760001c29020000000000f3ff37002000200079
:1067700001002000e423020000000000edff3700cc
:10678000881f78000004780011002000c01220004b
:106790006e28020000000000408189006033b800cc
:1067a0008602780008027800860178000210200036
:1067b00081102a0080392300d42602000000000046
:1067c0004f04780000000600881f7800000478005d
:1067d0000008a300020032000000a1000084e800cd
:1067e0000e210200000000000240800088004100ed
:1067f000f0702200808f500006003e00828f500013
:106800000400360020802000000441000140880080
:10681000010037000004eb004c23020000000000e0
:10682000080078004f047800000006000000060011
:106830000000eb000040880000000600007122000c
:10684000014080000100500000000600000006002a
:106850008040780040c2bf000018a300fdff3a004e
:106860000180fb004012880040c2bf000008a30066
:10687000fdff3200401280000080fb000000060097
:1068800081e0a80041a6a8009827020000000000af
:1068900000000500b62e0200000000000140fe00ce
:0468a00000000600ee
:020000040000fa
:0868a4000040da000000fe00d4
:020000040000fa
:0468ac0000000600e2
:00000001FF
